{
  "abi": [
    {
      "inputs": [],
      "stateMutability": "nonpayable",
      "type": "constructor"
    },
    {
      "anonymous": false,
      "inputs": [
        {
          "indexed": false,
          "internalType": "address",
          "name": "proxy",
          "type": "address"
        },
        {
          "indexed": false,
          "internalType": "string",
          "name": "name",
          "type": "string"
        },
        {
          "indexed": false,
          "internalType": "string",
          "name": "symbol",
          "type": "string"
        },
        {
          "indexed": false,
          "internalType": "string",
          "name": "baseURI",
          "type": "string"
        },
        {
          "indexed": false,
          "internalType": "uint256",
          "name": "mintPrice",
          "type": "uint256"
        },
        {
          "indexed": false,
          "internalType": "uint256",
          "name": "maxSupply",
          "type": "uint256"
        },
        {
          "indexed": false,
          "internalType": "uint256",
          "name": "launchDate",
          "type": "uint256"
        },
        {
          "indexed": false,
          "internalType": "address",
          "name": "payout",
          "type": "address"
        },
        {
          "indexed": false,
          "internalType": "address",
          "name": "creator",
          "type": "address"
        }
      ],
      "name": "Create721",
      "type": "event"
    },
    {
      "anonymous": false,
      "inputs": [
        {
          "indexed": true,
          "internalType": "bytes32",
          "name": "role",
          "type": "bytes32"
        },
        {
          "indexed": true,
          "internalType": "bytes32",
          "name": "previousAdminRole",
          "type": "bytes32"
        },
        {
          "indexed": true,
          "internalType": "bytes32",
          "name": "newAdminRole",
          "type": "bytes32"
        }
      ],
      "name": "RoleAdminChanged",
      "type": "event"
    },
    {
      "anonymous": false,
      "inputs": [
        {
          "indexed": true,
          "internalType": "bytes32",
          "name": "role",
          "type": "bytes32"
        },
        {
          "indexed": true,
          "internalType": "address",
          "name": "account",
          "type": "address"
        },
        {
          "indexed": true,
          "internalType": "address",
          "name": "sender",
          "type": "address"
        }
      ],
      "name": "RoleGranted",
      "type": "event"
    },
    {
      "anonymous": false,
      "inputs": [
        {
          "indexed": true,
          "internalType": "bytes32",
          "name": "role",
          "type": "bytes32"
        },
        {
          "indexed": true,
          "internalType": "address",
          "name": "account",
          "type": "address"
        },
        {
          "indexed": true,
          "internalType": "address",
          "name": "sender",
          "type": "address"
        }
      ],
      "name": "RoleRevoked",
      "type": "event"
    },
    {
      "inputs": [],
      "name": "DEFAULT_ADMIN_ROLE",
      "outputs": [
        {
          "internalType": "bytes32",
          "name": "",
          "type": "bytes32"
        }
      ],
      "stateMutability": "view",
      "type": "function"
    },
    {
      "inputs": [],
      "name": "DEPLOYER_ROLE",
      "outputs": [
        {
          "internalType": "bytes32",
          "name": "",
          "type": "bytes32"
        }
      ],
      "stateMutability": "view",
      "type": "function"
    },
    {
      "inputs": [],
      "name": "MODERATOR_ROLE",
      "outputs": [
        {
          "internalType": "bytes32",
          "name": "",
          "type": "bytes32"
        }
      ],
      "stateMutability": "view",
      "type": "function"
    },
    {
      "inputs": [
        {
          "internalType": "address",
          "name": "_account",
          "type": "address"
        }
      ],
      "name": "addDeployerRole",
      "outputs": [],
      "stateMutability": "nonpayable",
      "type": "function"
    },
    {
      "inputs": [
        {
          "internalType": "address",
          "name": "_account",
          "type": "address"
        }
      ],
      "name": "addModeratorRole",
      "outputs": [],
      "stateMutability": "nonpayable",
      "type": "function"
    },
    {
      "inputs": [
        {
          "internalType": "string",
          "name": "_name",
          "type": "string"
        },
        {
          "internalType": "string",
          "name": "_symbol",
          "type": "string"
        },
        {
          "internalType": "string",
          "name": "_baseURI",
          "type": "string"
        },
        {
          "internalType": "uint256",
          "name": "_mintPrice",
          "type": "uint256"
        },
        {
          "internalType": "uint256",
          "name": "_maxSupply",
          "type": "uint256"
        },
        {
          "internalType": "uint256",
          "name": "_launchDate",
          "type": "uint256"
        },
        {
          "internalType": "address",
          "name": "_payout",
          "type": "address"
        }
      ],
      "name": "deploy721Contract",
      "outputs": [
        {
          "internalType": "address",
          "name": "",
          "type": "address"
        }
      ],
      "stateMutability": "nonpayable",
      "type": "function"
    },
    {
      "inputs": [],
      "name": "disablePublicDeployer",
      "outputs": [],
      "stateMutability": "nonpayable",
      "type": "function"
    },
    {
      "inputs": [],
      "name": "enablePublicDeployer",
      "outputs": [],
      "stateMutability": "nonpayable",
      "type": "function"
    },
    {
      "inputs": [
        {
          "internalType": "bytes32",
          "name": "role",
          "type": "bytes32"
        }
      ],
      "name": "getRoleAdmin",
      "outputs": [
        {
          "internalType": "bytes32",
          "name": "",
          "type": "bytes32"
        }
      ],
      "stateMutability": "view",
      "type": "function"
    },
    {
      "inputs": [
        {
          "internalType": "bytes32",
          "name": "role",
          "type": "bytes32"
        },
        {
          "internalType": "uint256",
          "name": "index",
          "type": "uint256"
        }
      ],
      "name": "getRoleMember",
      "outputs": [
        {
          "internalType": "address",
          "name": "",
          "type": "address"
        }
      ],
      "stateMutability": "view",
      "type": "function"
    },
    {
      "inputs": [
        {
          "internalType": "bytes32",
          "name": "role",
          "type": "bytes32"
        }
      ],
      "name": "getRoleMemberCount",
      "outputs": [
        {
          "internalType": "uint256",
          "name": "",
          "type": "uint256"
        }
      ],
      "stateMutability": "view",
      "type": "function"
    },
    {
      "inputs": [
        {
          "internalType": "bytes32",
          "name": "role",
          "type": "bytes32"
        },
        {
          "internalType": "address",
          "name": "account",
          "type": "address"
        }
      ],
      "name": "grantRole",
      "outputs": [],
      "stateMutability": "nonpayable",
      "type": "function"
    },
    {
      "inputs": [
        {
          "internalType": "bytes32",
          "name": "role",
          "type": "bytes32"
        },
        {
          "internalType": "address",
          "name": "account",
          "type": "address"
        }
      ],
      "name": "hasRole",
      "outputs": [
        {
          "internalType": "bool",
          "name": "",
          "type": "bool"
        }
      ],
      "stateMutability": "view",
      "type": "function"
    },
    {
      "inputs": [],
      "name": "implementationAddress",
      "outputs": [
        {
          "internalType": "address",
          "name": "",
          "type": "address"
        }
      ],
      "stateMutability": "view",
      "type": "function"
    },
    {
      "inputs": [],
      "name": "publicDeployerEnabled",
      "outputs": [
        {
          "internalType": "bool",
          "name": "",
          "type": "bool"
        }
      ],
      "stateMutability": "view",
      "type": "function"
    },
    {
      "inputs": [
        {
          "internalType": "bytes32",
          "name": "role",
          "type": "bytes32"
        },
        {
          "internalType": "address",
          "name": "account",
          "type": "address"
        }
      ],
      "name": "renounceRole",
      "outputs": [],
      "stateMutability": "nonpayable",
      "type": "function"
    },
    {
      "inputs": [
        {
          "internalType": "address",
          "name": "_account",
          "type": "address"
        }
      ],
      "name": "revokeDeployerRole",
      "outputs": [],
      "stateMutability": "nonpayable",
      "type": "function"
    },
    {
      "inputs": [
        {
          "internalType": "address",
          "name": "_account",
          "type": "address"
        }
      ],
      "name": "revokeModeratorRole",
      "outputs": [],
      "stateMutability": "nonpayable",
      "type": "function"
    },
    {
      "inputs": [
        {
          "internalType": "bytes32",
          "name": "role",
          "type": "bytes32"
        },
        {
          "internalType": "address",
          "name": "account",
          "type": "address"
        }
      ],
      "name": "revokeRole",
      "outputs": [],
      "stateMutability": "nonpayable",
      "type": "function"
    },
    {
      "inputs": [
        {
          "internalType": "bytes4",
          "name": "interfaceId",
          "type": "bytes4"
        }
      ],
      "name": "supportsInterface",
      "outputs": [
        {
          "internalType": "bool",
          "name": "",
          "type": "bool"
        }
      ],
      "stateMutability": "view",
      "type": "function"
    },
    {
      "inputs": [
        {
          "internalType": "address",
          "name": "newLogicImpl",
          "type": "address"
        }
      ],
      "name": "upgrade",
      "outputs": [],
      "stateMutability": "nonpayable",
      "type": "function"
    },
    {
      "inputs": [],
      "name": "upgradeableBeacon",
      "outputs": [
        {
          "internalType": "contract UpgradeableBeacon",
          "name": "",
          "type": "address"
        }
      ],
      "stateMutability": "view",
      "type": "function"
    }
  ],
  "bytecode": {
    "object": "0x60806040523480156200001157600080fd5b506200001f60003362000187565b6200004b7ffc425f2263d0df187444b70e47283d622c70181c5baebb1306a01edba1ce184c3362000187565b620000777f71f3d55856e4058ed06ee057d79ada615f65cdf5f9ee88181b914225088f834f3362000187565b6040516200008590620002ec565b604051809103906000f080158015620000a2573d6000803e3d6000fd5b50600380546001600160a01b0319166001600160a01b03929092169182179055604051620000d090620002fa565b6001600160a01b039091168152602001604051809103906000f080158015620000fd573d6000803e3d6000fd5b50600280546001600160a01b0319166001600160a01b0392909216918217905560405163f2fde38b60e01b815233600482015263f2fde38b90602401600060405180830381600087803b1580156200015457600080fd5b505af115801562000169573d6000803e3d6000fd5b50506003805460ff60a01b1916600160a01b17905550620003089050565b62000193828262000197565b5050565b620001ae8282620001da60201b62000ea71760201c565b6000828152600160209081526040909120620001d591839062000f996200027a821b17901c565b505050565b6000828152602081815260408083206001600160a01b038516845290915290205460ff1662000193576000828152602081815260408083206001600160a01b03851684529091529020805460ff19166001179055620002363390565b6001600160a01b0316816001600160a01b0316837f2f8788117e7eff1d82e926ec794901d17c78024a50270940304540a733656f0d60405160405180910390a45050565b600062000291836001600160a01b0384166200029a565b90505b92915050565b6000818152600183016020526040812054620002e35750815460018181018455600084815260208082209093018490558454848252828601909352604090209190915562000294565b50600062000294565b6135a08062002afa83390190565b61070c806200609a83390190565b6127e280620003186000396000f3fe60806040523480156200001157600080fd5b5060043610620001a15760003560e01c806391d1485411620000e9578063b97a23191162000097578063d547741f116200006e578063d547741f14620003f2578063e251c6451462000409578063ecd00261146200042057600080fd5b8063b97a23191462000399578063ca15c87314620003ba578063d260952014620003d157600080fd5b80639f12141911620000cc5780639f1214191462000362578063a217fddf1462000379578063b515faba146200038257600080fd5b806391d14854146200030457806392b908b2146200034b57600080fd5b80632f2ff15d1162000153578063797669c9116200012a578063797669c9146200028857806381d96d6b14620002b05780639010d07c14620002c757600080fd5b80632f2ff15d146200025057806336568abe14620002675780634f2167bb146200027e57600080fd5b806322fb9c2b116200018857806322fb9c2b14620001eb578063248a9ca314620001f55780632eb9bf53146200022a57600080fd5b806301ffc9a714620001a65780630900f01014620001d2575b600080fd5b620001bd620001b7366004620016d3565b62000448565b60405190151581526020015b60405180910390f35b620001e9620001e336600462001741565b6200045b565b005b620001e962000584565b6200021b620002063660046200175f565b60009081526020819052604090206001015490565b604051908152602001620001c9565b600354620001bd9074010000000000000000000000000000000000000000900460ff1681565b620001e96200026136600462001779565b62000660565b620001e96200027836600462001779565b6200068e565b620001e962000745565b6200021b7f71f3d55856e4058ed06ee057d79ada615f65cdf5f9ee88181b914225088f834f81565b620001e9620002c136600462001741565b6200080a565b620002de620002d8366004620017a8565b620008f3565b60405173ffffffffffffffffffffffffffffffffffffffff9091168152602001620001c9565b620001bd6200031536600462001779565b60009182526020828152604080842073ffffffffffffffffffffffffffffffffffffffff93909316845291905290205460ff1690565b620001e96200035c36600462001741565b62000914565b620002de6200037336600462001817565b620009db565b6200021b600081565b620001e96200039336600462001741565b62000cb8565b600354620002de9073ffffffffffffffffffffffffffffffffffffffff1681565b6200021b620003cb3660046200175f565b62000d7f565b600254620002de9073ffffffffffffffffffffffffffffffffffffffff1681565b620001e96200040336600462001779565b62000d98565b620001e96200041a36600462001741565b62000dc1565b6200021b7ffc425f2263d0df187444b70e47283d622c70181c5baebb1306a01edba1ce184c81565b6000620004558262000fbd565b92915050565b6200046860003362000315565b620004fa576040517f08c379a000000000000000000000000000000000000000000000000000000000815260206004820152602e60248201527f6d75737420686176652061646d696e20726f6c6520746f20757067726164652060448201527f696d706c656d656e746174696f6e00000000000000000000000000000000000060648201526084015b60405180910390fd5b6002546040517f3659cfe600000000000000000000000000000000000000000000000000000000815273ffffffffffffffffffffffffffffffffffffffff838116600483015290911690633659cfe690602401600060405180830381600087803b1580156200056857600080fd5b505af11580156200057d573d6000803e3d6000fd5b5050505050565b6200059160003362000315565b6200061f576040517f08c379a000000000000000000000000000000000000000000000000000000000815260206004820152602e60248201527f6d75737420686176652061646d696e20726f6c6520746f20656e61626c65207060448201527f75626c6963206465706c6f7965720000000000000000000000000000000000006064820152608401620004f1565b600380547fffffffffffffffffffffff00ffffffffffffffffffffffffffffffffffffffff1674010000000000000000000000000000000000000000179055565b6000828152602081905260409020600101546200067d8162001016565b62000689838362001022565b505050565b73ffffffffffffffffffffffffffffffffffffffff8116331462000735576040517f08c379a000000000000000000000000000000000000000000000000000000000815260206004820152602f60248201527f416363657373436f6e74726f6c3a2063616e206f6e6c792072656e6f756e636560448201527f20726f6c657320666f722073656c6600000000000000000000000000000000006064820152608401620004f1565b62000741828262001048565b5050565b6200075260003362000315565b620007e0576040517f08c379a000000000000000000000000000000000000000000000000000000000815260206004820152602e60248201527f6d75737420686176652061646d696e20726f6c6520746f20656e61626c65207060448201527f75626c6963206465706c6f7965720000000000000000000000000000000000006064820152608401620004f1565b600380547fffffffffffffffffffffff00ffffffffffffffffffffffffffffffffffffffff169055565b620008367f71f3d55856e4058ed06ee057d79ada615f65cdf5f9ee88181b914225088f834f3362000315565b620008c4576040517f08c379a000000000000000000000000000000000000000000000000000000000815260206004820152602860248201527f6d7573742068617665206d6f64657261746f7220726f6c6520746f206164642060448201527f6465706c6f7965720000000000000000000000000000000000000000000000006064820152608401620004f1565b620008f07ffc425f2263d0df187444b70e47283d622c70181c5baebb1306a01edba1ce184c826200106e565b50565b60008281526001602052604081206200090d90836200107a565b9392505050565b6200092160003362000315565b620009af576040517f08c379a000000000000000000000000000000000000000000000000000000000815260206004820152602860248201527f6d75737420686176652061646d696e20726f6c6520746f2072656d6f7665206d60448201527f6f64657261746f720000000000000000000000000000000000000000000000006064820152608401620004f1565b620008f07f71f3d55856e4058ed06ee057d79ada615f65cdf5f9ee88181b914225088f834f8262000d98565b600062000a097ffc425f2263d0df187444b70e47283d622c70181c5baebb1306a01edba1ce184c3362000315565b8062000a2f575060035474010000000000000000000000000000000000000000900460ff165b62000abd576040517f08c379a000000000000000000000000000000000000000000000000000000000815260206004820152602a60248201527f6d7573742068617665206465706c6f79657220726f6c6520746f206465706c6f60448201527f7920636f6e7472616374000000000000000000000000000000000000000000006064820152608401620004f1565b60025460405160009173ffffffffffffffffffffffffffffffffffffffff16907f7ed52cf1000000000000000000000000000000000000000000000000000000009062000b21908f908f908f908f908f908f908f908f908f908f9060240162001932565b604080517fffffffffffffffffffffffffffffffffffffffffffffffffffffffffffffffe08184030181529181526020820180517bffffffffffffffffffffffffffffffffffffffffffffffffffffffff167fffffffff0000000000000000000000000000000000000000000000000000000090941693909317909252905162000bab90620016c5565b62000bb892919062001a33565b604051809103906000f08015801562000bd5573d6000803e3d6000fd5b506040517ff2fde38b00000000000000000000000000000000000000000000000000000000815233600482015290915073ffffffffffffffffffffffffffffffffffffffff82169063f2fde38b90602401600060405180830381600087803b15801562000c4157600080fd5b505af115801562000c56573d6000803e3d6000fd5b505050507fc68d95be59de0810491c0ce6bacb625aaec56ffecd83dec10b5e1d48f84ae675818d8d8d8d8d8d8d8d8d8d3360405162000ca19c9b9a9998979695949392919062001a6c565b60405180910390a19b9a5050505050505050505050565b62000cc560003362000315565b62000d53576040517f08c379a000000000000000000000000000000000000000000000000000000000815260206004820152602560248201527f6d75737420686176652061646d696e20726f6c6520746f20616464206d6f646560448201527f7261746f720000000000000000000000000000000000000000000000000000006064820152608401620004f1565b620008f07f71f3d55856e4058ed06ee057d79ada615f65cdf5f9ee88181b914225088f834f8262000660565b6000818152600160205260408120620004559062001088565b60008281526020819052604090206001015462000db58162001016565b62000689838362001048565b62000ded7f71f3d55856e4058ed06ee057d79ada615f65cdf5f9ee88181b914225088f834f3362000315565b62000e7b576040517f08c379a000000000000000000000000000000000000000000000000000000000815260206004820152602b60248201527f6d7573742068617665206d6f64657261746f7220726f6c6520746f2072656d6f60448201527f7665206465706c6f7965720000000000000000000000000000000000000000006064820152608401620004f1565b620008f07ffc425f2263d0df187444b70e47283d622c70181c5baebb1306a01edba1ce184c8262000d98565b60008281526020818152604080832073ffffffffffffffffffffffffffffffffffffffff8516845290915290205460ff16620007415760008281526020818152604080832073ffffffffffffffffffffffffffffffffffffffff85168452909152902080547fffffffffffffffffffffffffffffffffffffffffffffffffffffffffffffff0016600117905562000f3b3390565b73ffffffffffffffffffffffffffffffffffffffff168173ffffffffffffffffffffffffffffffffffffffff16837f2f8788117e7eff1d82e926ec794901d17c78024a50270940304540a733656f0d60405160405180910390a45050565b60006200090d8373ffffffffffffffffffffffffffffffffffffffff841662001093565b60007fffffffff0000000000000000000000000000000000000000000000000000000082167f5a05180f0000000000000000000000000000000000000000000000000000000014806200045557506200045582620010e5565b620008f081336200117e565b6200102e828262000ea7565b600082815260016020526040902062000689908262000f99565b62001054828262001257565b60008281526001602052604090206200068990826200130f565b62000741828262001022565b60006200090d838362001333565b600062000455825490565b6000818152600183016020526040812054620010dc5750815460018181018455600084815260208082209093018490558454848252828601909352604090209190915562000455565b50600062000455565b60007fffffffff0000000000000000000000000000000000000000000000000000000082167f7965db0b0000000000000000000000000000000000000000000000000000000014806200045557507f01ffc9a7000000000000000000000000000000000000000000000000000000007fffffffff0000000000000000000000000000000000000000000000000000000083161462000455565b60008281526020818152604080832073ffffffffffffffffffffffffffffffffffffffff8516845290915290205460ff166200074157620011d78173ffffffffffffffffffffffffffffffffffffffff16601462001360565b620011e483602062001360565b604051602001620011f792919062001b16565b604080517fffffffffffffffffffffffffffffffffffffffffffffffffffffffffffffffe0818403018152908290527f08c379a0000000000000000000000000000000000000000000000000000000008252620004f19160040162001b9b565b60008281526020818152604080832073ffffffffffffffffffffffffffffffffffffffff8516845290915290205460ff1615620007415760008281526020818152604080832073ffffffffffffffffffffffffffffffffffffffff8516808552925280832080547fffffffffffffffffffffffffffffffffffffffffffffffffffffffffffffff0016905551339285917ff6391f5c32d9c69d2a47ea670b442974b53935d1edc7fd64eb21e047a839171b9190a45050565b60006200090d8373ffffffffffffffffffffffffffffffffffffffff8416620015c1565b60008260000182815481106200134d576200134d62001bb0565b9060005260206000200154905092915050565b606060006200137183600262001c0e565b6200137e90600262001c4e565b67ffffffffffffffff81111562001399576200139962001c69565b6040519080825280601f01601f191660200182016040528015620013c4576020820181803683370190505b5090507f300000000000000000000000000000000000000000000000000000000000000081600081518110620013fe57620013fe62001bb0565b60200101907effffffffffffffffffffffffffffffffffffffffffffffffffffffffffffff1916908160001a9053507f78000000000000000000000000000000000000000000000000000000000000008160018151811062001464576200146462001bb0565b60200101907effffffffffffffffffffffffffffffffffffffffffffffffffffffffffffff1916908160001a9053506000620014a284600262001c0e565b620014af90600162001c4e565b90505b600181111562001556577f303132333435363738396162636465660000000000000000000000000000000085600f1660108110620014f457620014f462001bb0565b1a60f81b8282815181106200150d576200150d62001bb0565b60200101907effffffffffffffffffffffffffffffffffffffffffffffffffffffffffffff1916908160001a90535060049490941c936200154e8162001c98565b9050620014b2565b5083156200090d576040517f08c379a000000000000000000000000000000000000000000000000000000000815260206004820181905260248201527f537472696e67733a20686578206c656e67746820696e73756666696369656e746044820152606401620004f1565b60008181526001830160205260408120548015620016ba576000620015e860018362001cd0565b8554909150600090620015fe9060019062001cd0565b90508181146200166a57600086600001828154811062001622576200162262001bb0565b906000526020600020015490508087600001848154811062001648576200164862001bb0565b6000918252602080832090910192909255918252600188019052604090208390555b85548690806200167e576200167e62001cea565b60019003818190600052602060002001600090559055856001016000868152602001908152602001600020600090556001935050505062000455565b600091505062000455565b610a938062001d1a83390190565b600060208284031215620016e657600080fd5b81357fffffffff00000000000000000000000000000000000000000000000000000000811681146200090d57600080fd5b803573ffffffffffffffffffffffffffffffffffffffff811681146200173c57600080fd5b919050565b6000602082840312156200175457600080fd5b6200090d8262001717565b6000602082840312156200177257600080fd5b5035919050565b600080604083850312156200178d57600080fd5b823591506200179f6020840162001717565b90509250929050565b60008060408385031215620017bc57600080fd5b50508035926020909101359150565b60008083601f840112620017de57600080fd5b50813567ffffffffffffffff811115620017f757600080fd5b6020830191508360208285010111156200181057600080fd5b9250929050565b60008060008060008060008060008060e08b8d0312156200183757600080fd5b8a3567ffffffffffffffff808211156200185057600080fd5b6200185e8e838f01620017cb565b909c509a5060208d01359150808211156200187857600080fd5b620018868e838f01620017cb565b909a50985060408d0135915080821115620018a057600080fd5b50620018af8d828e01620017cb565b90975095505060608b0135935060808b0135925060a08b01359150620018d860c08c0162001717565b90509295989b9194979a5092959850565b8183528181602085013750600060208284010152600060207fffffffffffffffffffffffffffffffffffffffffffffffffffffffffffffffe0601f840116840101905092915050565b60e0815260006200194860e083018c8e620018e9565b82810360208401526200195d818b8d620018e9565b905082810360408401526200197481898b620018e9565b9150508560608301528460808301528360a083015273ffffffffffffffffffffffffffffffffffffffff831660c08301529b9a5050505050505050505050565b60005b83811015620019d1578181015183820152602001620019b7565b83811115620019e1576000848401525b50505050565b6000815180845262001a01816020860160208601620019b4565b601f017fffffffffffffffffffffffffffffffffffffffffffffffffffffffffffffffe0169290920160200192915050565b73ffffffffffffffffffffffffffffffffffffffff8316815260406020820152600062001a646040830184620019e7565b949350505050565b73ffffffffffffffffffffffffffffffffffffffff8d1681526101206020820152600062001aa061012083018d8f620018e9565b828103604084015262001ab5818c8e620018e9565b9050828103606084015262001acc818a8c620018e9565b6080840198909852505060a081019490945260c084019290925273ffffffffffffffffffffffffffffffffffffffff90811660e08401521661010090910152979650505050505050565b7f416363657373436f6e74726f6c3a206163636f756e742000000000000000000081526000835162001b50816017850160208801620019b4565b7f206973206d697373696e6720726f6c6520000000000000000000000000000000601791840191820152835162001b8f816028840160208801620019b4565b01602801949350505050565b6020815260006200090d6020830184620019e7565b7f4e487b7100000000000000000000000000000000000000000000000000000000600052603260045260246000fd5b7f4e487b7100000000000000000000000000000000000000000000000000000000600052601160045260246000fd5b6000817fffffffffffffffffffffffffffffffffffffffffffffffffffffffffffffffff048311821515161562001c495762001c4962001bdf565b500290565b6000821982111562001c645762001c6462001bdf565b500190565b7f4e487b7100000000000000000000000000000000000000000000000000000000600052604160045260246000fd5b60008162001caa5762001caa62001bdf565b507fffffffffffffffffffffffffffffffffffffffffffffffffffffffffffffffff0190565b60008282101562001ce55762001ce562001bdf565b500390565b7f4e487b7100000000000000000000000000000000000000000000000000000000600052603160045260246000fdfe608060405260405162000a9338038062000a938339810160408190526200002691620004c6565b6200005360017fa3f0ad74e5423aebfd80d3ef4346578335a9a72aeaee59ff6cb3582b35133d5162000594565b60008051602062000a4c83398151915214620000735762000073620005ba565b620000818282600062000089565b505062000641565b62000094836200015e565b6040516001600160a01b038416907f1cf3b03a6cf19fa2baba4df148e9dcabedea7f8a5c07840e207e5c089be95d3e90600090a2600082511180620000d65750805b15620001595762000157836001600160a01b0316635c60da1b6040518163ffffffff1660e01b8152600401602060405180830381865afa1580156200011f573d6000803e3d6000fd5b505050506040513d601f19601f82011682018060405250810190620001459190620005d0565b83620002ff60201b620000291760201c565b505b505050565b62000174816200032e60201b620000551760201c565b620001d45760405162461bcd60e51b815260206004820152602560248201527f455243313936373a206e657720626561636f6e206973206e6f74206120636f6e6044820152641d1c9858dd60da1b60648201526084015b60405180910390fd5b6200024e816001600160a01b0316635c60da1b6040518163ffffffff1660e01b8152600401602060405180830381865afa15801562000217573d6000803e3d6000fd5b505050506040513d601f19601f820116820180604052508101906200023d9190620005d0565b6200032e60201b620000551760201c565b620002b55760405162461bcd60e51b815260206004820152603060248201527f455243313936373a20626561636f6e20696d706c656d656e746174696f6e206960448201526f1cc81b9bdd08184818dbdb9d1c9858dd60821b6064820152608401620001cb565b80620002de60008051602062000a4c83398151915260001b6200033d60201b620000711760201c565b80546001600160a01b0319166001600160a01b039290921691909117905550565b606062000327838360405180606001604052806027815260200162000a6c6027913962000340565b9392505050565b6001600160a01b03163b151590565b90565b60606001600160a01b0384163b620003aa5760405162461bcd60e51b815260206004820152602660248201527f416464726573733a2064656c65676174652063616c6c20746f206e6f6e2d636f6044820152651b9d1c9858dd60d21b6064820152608401620001cb565b600080856001600160a01b031685604051620003c79190620005ee565b600060405180830381855af49150503d806000811462000404576040519150601f19603f3d011682016040523d82523d6000602084013e62000409565b606091505b5090925090506200041c82828662000426565b9695505050505050565b606083156200043757508162000327565b825115620004485782518084602001fd5b8160405162461bcd60e51b8152600401620001cb91906200060c565b80516001600160a01b03811681146200047c57600080fd5b919050565b634e487b7160e01b600052604160045260246000fd5b60005b83811015620004b45781810151838201526020016200049a565b83811115620001575750506000910152565b60008060408385031215620004da57600080fd5b620004e58362000464565b60208401519092506001600160401b03808211156200050357600080fd5b818501915085601f8301126200051857600080fd5b8151818111156200052d576200052d62000481565b604051601f8201601f19908116603f0116810190838211818310171562000558576200055862000481565b816040528281528860208487010111156200057257600080fd5b6200058583602083016020880162000497565b80955050505050509250929050565b600082821015620005b557634e487b7160e01b600052601160045260246000fd5b500390565b634e487b7160e01b600052600160045260246000fd5b600060208284031215620005e357600080fd5b620003278262000464565b600082516200060281846020870162000497565b9190910192915050565b60208152600082518060208401526200062d81604085016020870162000497565b601f01601f19169190910160400192915050565b6103fb80620006516000396000f3fe60806040523661001357610011610017565b005b6100115b610027610022610074565b610127565b565b606061004e838360405180606001604052806027815260200161039f6027913961014b565b9392505050565b73ffffffffffffffffffffffffffffffffffffffff163b151590565b90565b60006100b47fa3f0ad74e5423aebfd80d3ef4346578335a9a72aeaee59ff6cb3582b35133d505473ffffffffffffffffffffffffffffffffffffffff1690565b73ffffffffffffffffffffffffffffffffffffffff16635c60da1b6040518163ffffffff1660e01b8152600401602060405180830381865afa1580156100fe573d6000803e3d6000fd5b505050506040513d601f19601f8201168201806040525081019061012291906102cb565b905090565b3660008037600080366000845af43d6000803e808015610146573d6000f35b3d6000fd5b606073ffffffffffffffffffffffffffffffffffffffff84163b6101f6576040517f08c379a000000000000000000000000000000000000000000000000000000000815260206004820152602660248201527f416464726573733a2064656c65676174652063616c6c20746f206e6f6e2d636f60448201527f6e7472616374000000000000000000000000000000000000000000000000000060648201526084015b60405180910390fd5b6000808573ffffffffffffffffffffffffffffffffffffffff168560405161021e9190610331565b600060405180830381855af49150503d8060008114610259576040519150601f19603f3d011682016040523d82523d6000602084013e61025e565b606091505b509150915061026e828286610278565b9695505050505050565b6060831561028757508161004e565b8251156102975782518084602001fd5b816040517f08c379a00000000000000000000000000000000000000000000000000000000081526004016101ed919061034d565b6000602082840312156102dd57600080fd5b815173ffffffffffffffffffffffffffffffffffffffff8116811461004e57600080fd5b60005b8381101561031c578181015183820152602001610304565b8381111561032b576000848401525b50505050565b60008251610343818460208701610301565b9190910192915050565b602081526000825180602084015261036c816040850160208701610301565b601f017fffffffffffffffffffffffffffffffffffffffffffffffffffffffffffffffe016919091016040019291505056fe416464726573733a206c6f772d6c6576656c2064656c65676174652063616c6c206661696c6564a26469706673582212208f87ff0caa23baf6dac2ee244ef998ae53ebf6b161ee393bdbb92103ba35c4f964736f6c634300080d0033a3f0ad74e5423aebfd80d3ef4346578335a9a72aeaee59ff6cb3582b35133d50416464726573733a206c6f772d6c6576656c2064656c65676174652063616c6c206661696c6564a264697066735822122005cc260bc1988f87e2fd37aff4d61c3827a46f3bb96d3e178cea8129be31764f64736f6c634300080d0033608060405234801561001057600080fd5b50613580806100206000396000f3fe6080604052600436106101965760003560e01c80634f6ccce7116100e15780638da5cb5b1161008a578063b88d4fde11610064578063b88d4fde14610476578063c87b56dd14610496578063e985e9c5146104b6578063f2fde38b1461050c57600080fd5b80638da5cb5b1461041657806395d89b4114610441578063a22cb4651461045657600080fd5b806370a08231116100bb57806370a08231146103c1578063715018a6146103e15780637ed52cf1146103f657600080fd5b80634f6ccce71461036157806355f804b3146103815780636352211e146103a157600080fd5b806323b872dd116101435780633ccfd60b1161011d5780633ccfd60b1461030c57806342842e0e1461032157806342966c681461034157600080fd5b806323b872dd146102805780632a55205a146102a05780632f745c59146102ec57600080fd5b8063095ea7b311610174578063095ea7b3146102375780631249c58b1461025957806318160ddd1461026157600080fd5b806301ffc9a71461019b57806306fdde03146101d0578063081812fc146101f2575b600080fd5b3480156101a757600080fd5b506101bb6101b6366004612e96565b61052c565b60405190151581526020015b60405180910390f35b3480156101dc57600080fd5b506101e561053d565b6040516101c79190612f29565b3480156101fe57600080fd5b5061021261020d366004612f3c565b6105cf565b60405173ffffffffffffffffffffffffffffffffffffffff90911681526020016101c7565b34801561024357600080fd5b50610257610252366004612f7e565b6106ae565b005b61025761083a565b34801561026d57600080fd5b5060cb545b6040519081526020016101c7565b34801561028c57600080fd5b5061025761029b366004612fa8565b6109cc565b3480156102ac57600080fd5b506102c06102bb366004612fe4565b610a6e565b6040805173ffffffffffffffffffffffffffffffffffffffff90931683526020830191909152016101c7565b3480156102f857600080fd5b50610272610307366004612f7e565b610b65565b34801561031857600080fd5b50610257610c34565b34801561032d57600080fd5b5061025761033c366004612fa8565b610d69565b34801561034d57600080fd5b5061025761035c366004612f3c565b610d84565b34801561036d57600080fd5b5061027261037c366004612f3c565b610e22565b34801561038d57600080fd5b5061025761039c3660046130e9565b610ee0565b3480156103ad57600080fd5b506102126103bc366004612f3c565b610f6a565b3480156103cd57600080fd5b506102726103dc36600461311e565b61101c565b3480156103ed57600080fd5b506102576110ea565b34801561040257600080fd5b50610257610411366004613139565b611175565b34801561042257600080fd5b5060335473ffffffffffffffffffffffffffffffffffffffff16610212565b34801561044d57600080fd5b506101e56112a7565b34801561046257600080fd5b506102576104713660046131ef565b6112b6565b34801561048257600080fd5b5061025761049136600461322b565b6112c5565b3480156104a257600080fd5b506101e56104b1366004612f3c565b61136d565b3480156104c257600080fd5b506101bb6104d13660046132a7565b73ffffffffffffffffffffffffffffffffffffffff9182166000908152609c6020908152604080832093909416825291909152205460ff1690565b34801561051857600080fd5b5061025761052736600461311e565b61147d565b6000610537826115aa565b92915050565b60606097805461054c906132da565b80601f0160208091040260200160405190810160405280929190818152602001828054610578906132da565b80156105c55780601f1061059a576101008083540402835291602001916105c5565b820191906000526020600020905b8154815290600101906020018083116105a857829003601f168201915b5050505050905090565b60008181526099602052604081205473ffffffffffffffffffffffffffffffffffffffff16610685576040517f08c379a000000000000000000000000000000000000000000000000000000000815260206004820152602c60248201527f4552433732313a20617070726f76656420717565727920666f72206e6f6e657860448201527f697374656e7420746f6b656e000000000000000000000000000000000000000060648201526084015b60405180910390fd5b506000908152609b602052604090205473ffffffffffffffffffffffffffffffffffffffff1690565b60006106b982610f6a565b90508073ffffffffffffffffffffffffffffffffffffffff168373ffffffffffffffffffffffffffffffffffffffff1603610776576040517f08c379a000000000000000000000000000000000000000000000000000000000815260206004820152602160248201527f4552433732313a20617070726f76616c20746f2063757272656e74206f776e6560448201527f7200000000000000000000000000000000000000000000000000000000000000606482015260840161067c565b3373ffffffffffffffffffffffffffffffffffffffff8216148061079f575061079f81336104d1565b61082b576040517f08c379a000000000000000000000000000000000000000000000000000000000815260206004820152603860248201527f4552433732313a20617070726f76652063616c6c6572206973206e6f74206f7760448201527f6e6572206e6f7220617070726f76656420666f7220616c6c0000000000000000606482015260840161067c565b6108358383611600565b505050565b610131544210156108cc576040517f08c379a0000000000000000000000000000000000000000000000000000000008152602060048201526024808201527f6d696e74696e67206e6f7420656e61626c6564207965742c20706c656173652060448201527f7761697400000000000000000000000000000000000000000000000000000000606482015260840161067c565b6101305461012d541061093b576040517f08c379a000000000000000000000000000000000000000000000000000000000815260206004820152601660248201527f4d6178696d756d20737570706c79207265616368656400000000000000000000604482015260640161067c565b61012f543410156109a8576040517f08c379a000000000000000000000000000000000000000000000000000000000815260206004820152601160248201527f496e737566696369656e742066756e6473000000000000000000000000000000604482015260640161067c565b6109bb336109b661012d5490565b6116a0565b6109ca61012d80546001019055565b565b6109d7335b8261186e565b610a63576040517f08c379a000000000000000000000000000000000000000000000000000000000815260206004820152603160248201527f4552433732313a207472616e736665722063616c6c6572206973206e6f74206f60448201527f776e6572206e6f7220617070726f766564000000000000000000000000000000606482015260840161067c565b6108358383836119de565b600082815260fc6020908152604080832081518083019092525473ffffffffffffffffffffffffffffffffffffffff8116808352740100000000000000000000000000000000000000009091046bffffffffffffffffffffffff16928201929092528291610b2957506040805180820190915260fb5473ffffffffffffffffffffffffffffffffffffffff811682527401000000000000000000000000000000000000000090046bffffffffffffffffffffffff1660208201525b602081015160009061271090610b4d906bffffffffffffffffffffffff168761335c565b610b5791906133c8565b915196919550909350505050565b6000610b708361101c565b8210610bfe576040517f08c379a000000000000000000000000000000000000000000000000000000000815260206004820152602b60248201527f455243373231456e756d657261626c653a206f776e657220696e646578206f7560448201527f74206f6620626f756e6473000000000000000000000000000000000000000000606482015260840161067c565b5073ffffffffffffffffffffffffffffffffffffffff91909116600090815260c960209081526040808320938352929052205490565b60335473ffffffffffffffffffffffffffffffffffffffff163314610cb5576040517f08c379a000000000000000000000000000000000000000000000000000000000815260206004820181905260248201527f4f776e61626c653a2063616c6c6572206973206e6f7420746865206f776e6572604482015260640161067c565b60004711610d1f576040517f08c379a000000000000000000000000000000000000000000000000000000000815260206004820152601460248201527f4e6f2066756e647320746f207769746864726177000000000000000000000000604482015260640161067c565b6101325460405173ffffffffffffffffffffffffffffffffffffffff909116904780156108fc02916000818181858888f19350505050158015610d66573d6000803e3d6000fd5b50565b610835838383604051806020016040528060008152506112c5565b610d8d336109d1565b610e19576040517f08c379a000000000000000000000000000000000000000000000000000000000815260206004820152603360248201527f4552433732315570677261646561626c653a2063616c6c6572206973206e6f7460448201527f206f776e6572206e6f7220617070726f76656400000000000000000000000000606482015260840161067c565b610d6681611c50565b6000610e2d60cb5490565b8210610ebb576040517f08c379a000000000000000000000000000000000000000000000000000000000815260206004820152602c60248201527f455243373231456e756d657261626c653a20676c6f62616c20696e646578206f60448201527f7574206f6620626f756e64730000000000000000000000000000000000000000606482015260840161067c565b60cb8281548110610ece57610ece6133dc565b90600052602060002001549050919050565b60335473ffffffffffffffffffffffffffffffffffffffff163314610f61576040517f08c379a000000000000000000000000000000000000000000000000000000000815260206004820181905260248201527f4f776e61626c653a2063616c6c6572206973206e6f7420746865206f776e6572604482015260640161067c565b610d6681611d29565b60008181526099602052604081205473ffffffffffffffffffffffffffffffffffffffff1680610537576040517f08c379a000000000000000000000000000000000000000000000000000000000815260206004820152602960248201527f4552433732313a206f776e657220717565727920666f72206e6f6e657869737460448201527f656e7420746f6b656e0000000000000000000000000000000000000000000000606482015260840161067c565b600073ffffffffffffffffffffffffffffffffffffffff82166110c1576040517f08c379a000000000000000000000000000000000000000000000000000000000815260206004820152602a60248201527f4552433732313a2062616c616e636520717565727920666f7220746865207a6560448201527f726f206164647265737300000000000000000000000000000000000000000000606482015260840161067c565b5073ffffffffffffffffffffffffffffffffffffffff166000908152609a602052604090205490565b60335473ffffffffffffffffffffffffffffffffffffffff16331461116b576040517f08c379a000000000000000000000000000000000000000000000000000000000815260206004820181905260248201527f4f776e61626c653a2063616c6c6572206973206e6f7420746865206f776e6572604482015260640161067c565b6109ca6000611d3d565b600054610100900460ff166111905760005460ff1615611194565b303b155b611220576040517f08c379a000000000000000000000000000000000000000000000000000000000815260206004820152602e60248201527f496e697469616c697a61626c653a20636f6e747261637420697320616c72656160448201527f647920696e697469616c697a6564000000000000000000000000000000000000606482015260840161067c565b600054610100900460ff1615801561125f57600080547fffffffffffffffffffffffffffffffffffffffffffffffffffffffffffff0000166101011790555b61126e88888888888888611db4565b801561129d57600080547fffffffffffffffffffffffffffffffffffffffffffffffffffffffffffff00ff1690555b5050505050505050565b60606098805461054c906132da565b6112c1338383611edf565b5050565b6112cf338361186e565b61135b576040517f08c379a000000000000000000000000000000000000000000000000000000000815260206004820152603160248201527f4552433732313a207472616e736665722063616c6c6572206973206e6f74206f60448201527f776e6572206e6f7220617070726f766564000000000000000000000000000000606482015260840161067c565b6113678484848461200c565b50505050565b60008181526099602052604090205460609073ffffffffffffffffffffffffffffffffffffffff16611421576040517f08c379a000000000000000000000000000000000000000000000000000000000815260206004820152602f60248201527f4552433732314d657461646174613a2055524920717565727920666f72206e6f60448201527f6e6578697374656e7420746f6b656e0000000000000000000000000000000000606482015260840161067c565b600061142b6120af565b9050600081511161144b5760405180602001604052806000815250611476565b80611455846120bf565b60405160200161146692919061340b565b6040516020818303038152906040525b9392505050565b60335473ffffffffffffffffffffffffffffffffffffffff1633146114fe576040517f08c379a000000000000000000000000000000000000000000000000000000000815260206004820181905260248201527f4f776e61626c653a2063616c6c6572206973206e6f7420746865206f776e6572604482015260640161067c565b73ffffffffffffffffffffffffffffffffffffffff81166115a1576040517f08c379a000000000000000000000000000000000000000000000000000000000815260206004820152602660248201527f4f776e61626c653a206e6577206f776e657220697320746865207a65726f206160448201527f6464726573730000000000000000000000000000000000000000000000000000606482015260840161067c565b610d6681611d3d565b60007fffffffff0000000000000000000000000000000000000000000000000000000082167f2a55205a0000000000000000000000000000000000000000000000000000000014806105375750610537826121f4565b6000818152609b6020526040902080547fffffffffffffffffffffffff00000000000000000000000000000000000000001673ffffffffffffffffffffffffffffffffffffffff8416908117909155819061165a82610f6a565b73ffffffffffffffffffffffffffffffffffffffff167f8c5be1e5ebec7d5bd14f71427d1e84f3dd0314c0f7b2291e5b200ac8c7c3b92560405160405180910390a45050565b73ffffffffffffffffffffffffffffffffffffffff821661171d576040517f08c379a000000000000000000000000000000000000000000000000000000000815260206004820181905260248201527f4552433732313a206d696e7420746f20746865207a65726f2061646472657373604482015260640161067c565b60008181526099602052604090205473ffffffffffffffffffffffffffffffffffffffff16156117a9576040517f08c379a000000000000000000000000000000000000000000000000000000000815260206004820152601c60248201527f4552433732313a20746f6b656e20616c7265616479206d696e74656400000000604482015260640161067c565b6117b56000838361224a565b73ffffffffffffffffffffffffffffffffffffffff82166000908152609a602052604081208054600192906117eb90849061343a565b909155505060008181526099602052604080822080547fffffffffffffffffffffffff00000000000000000000000000000000000000001673ffffffffffffffffffffffffffffffffffffffff861690811790915590518392907fddf252ad1be2c89b69c2b068fc378daa952ba7f163c4a11628f55a4df523b3ef908290a45050565b60008181526099602052604081205473ffffffffffffffffffffffffffffffffffffffff1661191f576040517f08c379a000000000000000000000000000000000000000000000000000000000815260206004820152602c60248201527f4552433732313a206f70657261746f7220717565727920666f72206e6f6e657860448201527f697374656e7420746f6b656e0000000000000000000000000000000000000000606482015260840161067c565b600061192a83610f6a565b90508073ffffffffffffffffffffffffffffffffffffffff168473ffffffffffffffffffffffffffffffffffffffff161480611998575073ffffffffffffffffffffffffffffffffffffffff8082166000908152609c602090815260408083209388168352929052205460ff165b806119d657508373ffffffffffffffffffffffffffffffffffffffff166119be846105cf565b73ffffffffffffffffffffffffffffffffffffffff16145b949350505050565b8273ffffffffffffffffffffffffffffffffffffffff166119fe82610f6a565b73ffffffffffffffffffffffffffffffffffffffff1614611aa1576040517f08c379a000000000000000000000000000000000000000000000000000000000815260206004820152602560248201527f4552433732313a207472616e736665722066726f6d20696e636f72726563742060448201527f6f776e6572000000000000000000000000000000000000000000000000000000606482015260840161067c565b73ffffffffffffffffffffffffffffffffffffffff8216611b43576040517f08c379a0000000000000000000000000000000000000000000000000000000008152602060048201526024808201527f4552433732313a207472616e7366657220746f20746865207a65726f2061646460448201527f7265737300000000000000000000000000000000000000000000000000000000606482015260840161067c565b611b4e83838361224a565b611b59600082611600565b73ffffffffffffffffffffffffffffffffffffffff83166000908152609a60205260408120805460019290611b8f908490613452565b909155505073ffffffffffffffffffffffffffffffffffffffff82166000908152609a60205260408120805460019290611bca90849061343a565b909155505060008181526099602052604080822080547fffffffffffffffffffffffff00000000000000000000000000000000000000001673ffffffffffffffffffffffffffffffffffffffff86811691821790925591518493918716917fddf252ad1be2c89b69c2b068fc378daa952ba7f163c4a11628f55a4df523b3ef91a4505050565b6000611c5b82610f6a565b9050611c698160008461224a565b611c74600083611600565b73ffffffffffffffffffffffffffffffffffffffff81166000908152609a60205260408120805460019290611caa908490613452565b909155505060008281526099602052604080822080547fffffffffffffffffffffffff00000000000000000000000000000000000000001690555183919073ffffffffffffffffffffffffffffffffffffffff8416907fddf252ad1be2c89b69c2b068fc378daa952ba7f163c4a11628f55a4df523b3ef908390a45050565b80516112c19061012e906020840190612dcf565b6033805473ffffffffffffffffffffffffffffffffffffffff8381167fffffffffffffffffffffffff0000000000000000000000000000000000000000831681179093556040519116919082907f8be0079c531659141344cd1fd0a4f28419497f9722a3daafe3b4186f6b6457e090600090a35050565b600054610100900460ff16611dcf5760005460ff1615611dd3565b303b155b611e5f576040517f08c379a000000000000000000000000000000000000000000000000000000000815260206004820152602e60248201527f496e697469616c697a61626c653a20636f6e747261637420697320616c72656160448201527f647920696e697469616c697a6564000000000000000000000000000000000000606482015260840161067c565b600054610100900460ff16158015611e9e57600080547fffffffffffffffffffffffffffffffffffffffffffffffffffffffffffff0000166101011790555b611ea6612255565b611eae612255565b611eb66122ec565b611ec0888861238c565b611ec8612255565b611ed061244a565b61126e88888888888888612565565b8173ffffffffffffffffffffffffffffffffffffffff168373ffffffffffffffffffffffffffffffffffffffff1603611f74576040517f08c379a000000000000000000000000000000000000000000000000000000000815260206004820152601960248201527f4552433732313a20617070726f766520746f2063616c6c657200000000000000604482015260640161067c565b73ffffffffffffffffffffffffffffffffffffffff8381166000818152609c602090815260408083209487168084529482529182902080547fffffffffffffffffffffffffffffffffffffffffffffffffffffffffffffff001686151590811790915591519182527f17307eab39ab6107e8899845ad3d59bd9653f200f220920489ca2b5937696c31910160405180910390a3505050565b6120178484846119de565b612023848484846126c3565b611367576040517f08c379a000000000000000000000000000000000000000000000000000000000815260206004820152603260248201527f4552433732313a207472616e7366657220746f206e6f6e20455243373231526560448201527f63656976657220696d706c656d656e7465720000000000000000000000000000606482015260840161067c565b606061012e805461054c906132da565b60608160000361210257505060408051808201909152600181527f3000000000000000000000000000000000000000000000000000000000000000602082015290565b8160005b811561212c578061211681613469565b91506121259050600a836133c8565b9150612106565b60008167ffffffffffffffff81111561214757612147613006565b6040519080825280601f01601f191660200182016040528015612171576020820181803683370190505b5090505b84156119d657612186600183613452565b9150612193600a866134a1565b61219e90603061343a565b60f81b8183815181106121b3576121b36133dc565b60200101907effffffffffffffffffffffffffffffffffffffffffffffffffffffffffffff1916908160001a9053506121ed600a866133c8565b9450612175565b60007fffffffff0000000000000000000000000000000000000000000000000000000082167f780e9d630000000000000000000000000000000000000000000000000000000014806105375750610537826128b6565b610835838383612999565b600054610100900460ff166109ca576040517f08c379a000000000000000000000000000000000000000000000000000000000815260206004820152602b60248201527f496e697469616c697a61626c653a20636f6e7472616374206973206e6f74206960448201527f6e697469616c697a696e67000000000000000000000000000000000000000000606482015260840161067c565b600054610100900460ff16612383576040517f08c379a000000000000000000000000000000000000000000000000000000000815260206004820152602b60248201527f496e697469616c697a61626c653a20636f6e7472616374206973206e6f74206960448201527f6e697469616c697a696e67000000000000000000000000000000000000000000606482015260840161067c565b6109ca33611d3d565b600054610100900460ff16612423576040517f08c379a000000000000000000000000000000000000000000000000000000000815260206004820152602b60248201527f496e697469616c697a61626c653a20636f6e7472616374206973206e6f74206960448201527f6e697469616c697a696e67000000000000000000000000000000000000000000606482015260840161067c565b8151612436906097906020850190612dcf565b508051610835906098906020840190612dcf565b600054610100900460ff166124655760005460ff1615612469565b303b155b6124f5576040517f08c379a000000000000000000000000000000000000000000000000000000000815260206004820152602e60248201527f496e697469616c697a61626c653a20636f6e747261637420697320616c72656160448201527f647920696e697469616c697a6564000000000000000000000000000000000000606482015260840161067c565b600054610100900460ff1615801561253457600080547fffffffffffffffffffffffffffffffffffffffffffffffffffffffffffff0000166101011790555b8015610d6657600080547fffffffffffffffffffffffffffffffffffffffffffffffffffffffffffff00ff16905550565b600054610100900460ff166125805760005460ff1615612584565b303b155b612610576040517f08c379a000000000000000000000000000000000000000000000000000000000815260206004820152602e60248201527f496e697469616c697a61626c653a20636f6e747261637420697320616c72656160448201527f647920696e697469616c697a6564000000000000000000000000000000000000606482015260840161067c565b600054610100900460ff1615801561264f57600080547fffffffffffffffffffffffffffffffffffffffffffffffffffffffffffff0000166101011790555b85516126639061012e906020890190612dcf565b5061012f85905561013084905561013183905561013280547fffffffffffffffffffffffff00000000000000000000000000000000000000001673ffffffffffffffffffffffffffffffffffffffff841617905561126e826103e8612a9f565b600073ffffffffffffffffffffffffffffffffffffffff84163b156128ab576040517f150b7a0200000000000000000000000000000000000000000000000000000000815273ffffffffffffffffffffffffffffffffffffffff85169063150b7a029061273a9033908990889088906004016134b5565b6020604051808303816000875af1925050508015612793575060408051601f3d9081017fffffffffffffffffffffffffffffffffffffffffffffffffffffffffffffffe0168201909252612790918101906134fe565b60015b612860573d8080156127c1576040519150601f19603f3d011682016040523d82523d6000602084013e6127c6565b606091505b508051600003612858576040517f08c379a000000000000000000000000000000000000000000000000000000000815260206004820152603260248201527f4552433732313a207472616e7366657220746f206e6f6e20455243373231526560448201527f63656976657220696d706c656d656e7465720000000000000000000000000000606482015260840161067c565b805181602001fd5b7fffffffff00000000000000000000000000000000000000000000000000000000167f150b7a02000000000000000000000000000000000000000000000000000000001490506119d6565b506001949350505050565b60007fffffffff0000000000000000000000000000000000000000000000000000000082167f80ac58cd00000000000000000000000000000000000000000000000000000000148061294957507fffffffff0000000000000000000000000000000000000000000000000000000082167f5b5e139f00000000000000000000000000000000000000000000000000000000145b8061053757507f01ffc9a7000000000000000000000000000000000000000000000000000000007fffffffff00000000000000000000000000000000000000000000000000000000831614610537565b73ffffffffffffffffffffffffffffffffffffffff8316612a01576129fc8160cb8054600083815260cc60205260408120829055600182018355919091527fa7ce836d032b2bf62b7e2097a8e0a6d8aeb35405ad15271e96d3b0188a1d06fb0155565b612a3e565b8173ffffffffffffffffffffffffffffffffffffffff168373ffffffffffffffffffffffffffffffffffffffff1614612a3e57612a3e8382612c18565b73ffffffffffffffffffffffffffffffffffffffff8216612a625761083581612ccf565b8273ffffffffffffffffffffffffffffffffffffffff168273ffffffffffffffffffffffffffffffffffffffff1614610835576108358282612d7e565b6127106bffffffffffffffffffffffff82161115612b3f576040517f08c379a000000000000000000000000000000000000000000000000000000000815260206004820152602a60248201527f455243323938313a20726f79616c7479206665652077696c6c2065786365656460448201527f2073616c65507269636500000000000000000000000000000000000000000000606482015260840161067c565b73ffffffffffffffffffffffffffffffffffffffff8216612bbc576040517f08c379a000000000000000000000000000000000000000000000000000000000815260206004820152601960248201527f455243323938313a20696e76616c696420726563656976657200000000000000604482015260640161067c565b6040805180820190915273ffffffffffffffffffffffffffffffffffffffff9092168083526bffffffffffffffffffffffff9091166020909201829052740100000000000000000000000000000000000000009091021760fb55565b60006001612c258461101c565b612c2f9190613452565b600083815260ca6020526040902054909150808214612c8f5773ffffffffffffffffffffffffffffffffffffffff8416600090815260c960209081526040808320858452825280832054848452818420819055835260ca90915290208190555b50600091825260ca6020908152604080842084905573ffffffffffffffffffffffffffffffffffffffff909416835260c981528383209183525290812055565b60cb54600090612ce190600190613452565b600083815260cc602052604081205460cb8054939450909284908110612d0957612d096133dc565b906000526020600020015490508060cb8381548110612d2a57612d2a6133dc565b600091825260208083209091019290925582815260cc909152604080822084905585825281205560cb805480612d6257612d6261351b565b6001900381819060005260206000200160009055905550505050565b6000612d898361101c565b73ffffffffffffffffffffffffffffffffffffffff909316600090815260c960209081526040808320868452825280832085905593825260ca9052919091209190915550565b828054612ddb906132da565b90600052602060002090601f016020900481019282612dfd5760008555612e43565b82601f10612e1657805160ff1916838001178555612e43565b82800160010185558215612e43579182015b82811115612e43578251825591602001919060010190612e28565b50612e4f929150612e53565b5090565b5b80821115612e4f5760008155600101612e54565b7fffffffff0000000000000000000000000000000000000000000000000000000081168114610d6657600080fd5b600060208284031215612ea857600080fd5b813561147681612e68565b60005b83811015612ece578181015183820152602001612eb6565b838111156113675750506000910152565b60008151808452612ef7816020860160208601612eb3565b601f017fffffffffffffffffffffffffffffffffffffffffffffffffffffffffffffffe0169290920160200192915050565b6020815260006114766020830184612edf565b600060208284031215612f4e57600080fd5b5035919050565b803573ffffffffffffffffffffffffffffffffffffffff81168114612f7957600080fd5b919050565b60008060408385031215612f9157600080fd5b612f9a83612f55565b946020939093013593505050565b600080600060608486031215612fbd57600080fd5b612fc684612f55565b9250612fd460208501612f55565b9150604084013590509250925092565b60008060408385031215612ff757600080fd5b50508035926020909101359150565b7f4e487b7100000000000000000000000000000000000000000000000000000000600052604160045260246000fd5b600067ffffffffffffffff8084111561305057613050613006565b604051601f85017fffffffffffffffffffffffffffffffffffffffffffffffffffffffffffffffe0908116603f0116810190828211818310171561309657613096613006565b816040528093508581528686860111156130af57600080fd5b858560208301376000602087830101525050509392505050565b600082601f8301126130da57600080fd5b61147683833560208501613035565b6000602082840312156130fb57600080fd5b813567ffffffffffffffff81111561311257600080fd5b6119d6848285016130c9565b60006020828403121561313057600080fd5b61147682612f55565b600080600080600080600060e0888a03121561315457600080fd5b873567ffffffffffffffff8082111561316c57600080fd5b6131788b838c016130c9565b985060208a013591508082111561318e57600080fd5b61319a8b838c016130c9565b975060408a01359150808211156131b057600080fd5b506131bd8a828b016130c9565b955050606088013593506080880135925060a088013591506131e160c08901612f55565b905092959891949750929550565b6000806040838503121561320257600080fd5b61320b83612f55565b91506020830135801515811461322057600080fd5b809150509250929050565b6000806000806080858703121561324157600080fd5b61324a85612f55565b935061325860208601612f55565b925060408501359150606085013567ffffffffffffffff81111561327b57600080fd5b8501601f8101871361328c57600080fd5b61329b87823560208401613035565b91505092959194509250565b600080604083850312156132ba57600080fd5b6132c383612f55565b91506132d160208401612f55565b90509250929050565b600181811c908216806132ee57607f821691505b602082108103613327577f4e487b7100000000000000000000000000000000000000000000000000000000600052602260045260246000fd5b50919050565b7f4e487b7100000000000000000000000000000000000000000000000000000000600052601160045260246000fd5b6000817fffffffffffffffffffffffffffffffffffffffffffffffffffffffffffffffff04831182151516156133945761339461332d565b500290565b7f4e487b7100000000000000000000000000000000000000000000000000000000600052601260045260246000fd5b6000826133d7576133d7613399565b500490565b7f4e487b7100000000000000000000000000000000000000000000000000000000600052603260045260246000fd5b6000835161341d818460208801612eb3565b835190830190613431818360208801612eb3565b01949350505050565b6000821982111561344d5761344d61332d565b500190565b6000828210156134645761346461332d565b500390565b60007fffffffffffffffffffffffffffffffffffffffffffffffffffffffffffffffff820361349a5761349a61332d565b5060010190565b6000826134b0576134b0613399565b500690565b600073ffffffffffffffffffffffffffffffffffffffff8087168352808616602084015250836040830152608060608301526134f46080830184612edf565b9695505050505050565b60006020828403121561351057600080fd5b815161147681612e68565b7f4e487b7100000000000000000000000000000000000000000000000000000000600052603160045260246000fdfea26469706673582212202d1ece86a2c9677b727e5db171b78b002d3a4c0998c1c730590346eb5ef67cad64736f6c634300080d0033608060405234801561001057600080fd5b5060405161070c38038061070c83398101604081905261002f91610151565b61003833610047565b61004181610097565b50610181565b600080546001600160a01b038381166001600160a01b0319831681178455604051919092169283917f8be0079c531659141344cd1fd0a4f28419497f9722a3daafe3b4186f6b6457e09190a35050565b6100aa8161014260201b61038d1760201c565b6101205760405162461bcd60e51b815260206004820152603360248201527f5570677261646561626c65426561636f6e3a20696d706c656d656e746174696f60448201527f6e206973206e6f74206120636f6e747261637400000000000000000000000000606482015260840160405180910390fd5b600180546001600160a01b0319166001600160a01b0392909216919091179055565b6001600160a01b03163b151590565b60006020828403121561016357600080fd5b81516001600160a01b038116811461017a57600080fd5b9392505050565b61057c806101906000396000f3fe608060405234801561001057600080fd5b50600436106100675760003560e01c8063715018a611610050578063715018a6146100c45780638da5cb5b146100cc578063f2fde38b146100ea57600080fd5b80633659cfe61461006c5780635c60da1b14610081575b600080fd5b61007f61007a366004610509565b6100fd565b005b60015473ffffffffffffffffffffffffffffffffffffffff165b60405173ffffffffffffffffffffffffffffffffffffffff909116815260200160405180910390f35b61007f6101d0565b60005473ffffffffffffffffffffffffffffffffffffffff1661009b565b61007f6100f8366004610509565b61025d565b60005473ffffffffffffffffffffffffffffffffffffffff163314610183576040517f08c379a000000000000000000000000000000000000000000000000000000000815260206004820181905260248201527f4f776e61626c653a2063616c6c6572206973206e6f7420746865206f776e657260448201526064015b60405180910390fd5b61018c816103a9565b60405173ffffffffffffffffffffffffffffffffffffffff8216907fbc7cd75a20ee27fd9adebab32041f755214dbc6bffa90cc0225b39da2e5c2d3b90600090a250565b60005473ffffffffffffffffffffffffffffffffffffffff163314610251576040517f08c379a000000000000000000000000000000000000000000000000000000000815260206004820181905260248201527f4f776e61626c653a2063616c6c6572206973206e6f7420746865206f776e6572604482015260640161017a565b61025b6000610494565b565b60005473ffffffffffffffffffffffffffffffffffffffff1633146102de576040517f08c379a000000000000000000000000000000000000000000000000000000000815260206004820181905260248201527f4f776e61626c653a2063616c6c6572206973206e6f7420746865206f776e6572604482015260640161017a565b73ffffffffffffffffffffffffffffffffffffffff8116610381576040517f08c379a000000000000000000000000000000000000000000000000000000000815260206004820152602660248201527f4f776e61626c653a206e6577206f776e657220697320746865207a65726f206160448201527f6464726573730000000000000000000000000000000000000000000000000000606482015260840161017a565b61038a81610494565b50565b73ffffffffffffffffffffffffffffffffffffffff163b151590565b73ffffffffffffffffffffffffffffffffffffffff81163b61044d576040517f08c379a000000000000000000000000000000000000000000000000000000000815260206004820152603360248201527f5570677261646561626c65426561636f6e3a20696d706c656d656e746174696f60448201527f6e206973206e6f74206120636f6e747261637400000000000000000000000000606482015260840161017a565b600180547fffffffffffffffffffffffff00000000000000000000000000000000000000001673ffffffffffffffffffffffffffffffffffffffff92909216919091179055565b6000805473ffffffffffffffffffffffffffffffffffffffff8381167fffffffffffffffffffffffff0000000000000000000000000000000000000000831681178455604051919092169283917f8be0079c531659141344cd1fd0a4f28419497f9722a3daafe3b4186f6b6457e09190a35050565b60006020828403121561051b57600080fd5b813573ffffffffffffffffffffffffffffffffffffffff8116811461053f57600080fd5b939250505056fea26469706673582212200754593ddbe0309b7b1c559830d1d6d95546d1d7dd936dc8f503390d4809ad0e64736f6c634300080d0033",
    "linkReferences": {}
  }
}