{
  "abi": [
    {
      "anonymous": false,
      "inputs": [
        {
          "indexed": true,
          "internalType": "address",
          "name": "owner",
          "type": "address"
        },
        {
          "indexed": true,
          "internalType": "address",
          "name": "approved",
          "type": "address"
        },
        {
          "indexed": true,
          "internalType": "uint256",
          "name": "tokenId",
          "type": "uint256"
        }
      ],
      "name": "Approval",
      "type": "event"
    },
    {
      "anonymous": false,
      "inputs": [
        {
          "indexed": true,
          "internalType": "address",
          "name": "owner",
          "type": "address"
        },
        {
          "indexed": true,
          "internalType": "address",
          "name": "operator",
          "type": "address"
        },
        {
          "indexed": false,
          "internalType": "bool",
          "name": "approved",
          "type": "bool"
        }
      ],
      "name": "ApprovalForAll",
      "type": "event"
    },
    {
      "anonymous": false,
      "inputs": [
        {
          "indexed": true,
          "internalType": "address",
          "name": "previousOwner",
          "type": "address"
        },
        {
          "indexed": true,
          "internalType": "address",
          "name": "newOwner",
          "type": "address"
        }
      ],
      "name": "OwnershipTransferred",
      "type": "event"
    },
    {
      "anonymous": false,
      "inputs": [
        {
          "indexed": true,
          "internalType": "address",
          "name": "from",
          "type": "address"
        },
        {
          "indexed": true,
          "internalType": "address",
          "name": "to",
          "type": "address"
        },
        {
          "indexed": true,
          "internalType": "uint256",
          "name": "tokenId",
          "type": "uint256"
        }
      ],
      "name": "Transfer",
      "type": "event"
    },
    {
      "inputs": [
        {
          "internalType": "address",
          "name": "to",
          "type": "address"
        },
        {
          "internalType": "uint256",
          "name": "tokenId",
          "type": "uint256"
        }
      ],
      "name": "approve",
      "outputs": [],
      "stateMutability": "nonpayable",
      "type": "function"
    },
    {
      "inputs": [
        {
          "internalType": "address",
          "name": "owner",
          "type": "address"
        }
      ],
      "name": "balanceOf",
      "outputs": [
        {
          "internalType": "uint256",
          "name": "",
          "type": "uint256"
        }
      ],
      "stateMutability": "view",
      "type": "function"
    },
    {
      "inputs": [
        {
          "internalType": "uint256",
          "name": "tokenId",
          "type": "uint256"
        }
      ],
      "name": "burn",
      "outputs": [],
      "stateMutability": "nonpayable",
      "type": "function"
    },
    {
      "inputs": [
        {
          "internalType": "uint256",
          "name": "tokenId",
          "type": "uint256"
        }
      ],
      "name": "getApproved",
      "outputs": [
        {
          "internalType": "address",
          "name": "",
          "type": "address"
        }
      ],
      "stateMutability": "view",
      "type": "function"
    },
    {
      "inputs": [
        {
          "internalType": "string",
          "name": "name",
          "type": "string"
        },
        {
          "internalType": "string",
          "name": "symbol",
          "type": "string"
        },
        {
          "internalType": "string",
          "name": "baseTokenURI",
          "type": "string"
        },
        {
          "internalType": "uint256",
          "name": "mintPrice",
          "type": "uint256"
        },
        {
          "internalType": "uint256",
          "name": "maxSupply",
          "type": "uint256"
        },
        {
          "internalType": "uint256",
          "name": "launchDate",
          "type": "uint256"
        },
        {
          "internalType": "address",
          "name": "payout",
          "type": "address"
        }
      ],
      "name": "initialize",
      "outputs": [],
      "stateMutability": "nonpayable",
      "type": "function"
    },
    {
      "inputs": [
        {
          "internalType": "address",
          "name": "owner",
          "type": "address"
        },
        {
          "internalType": "address",
          "name": "operator",
          "type": "address"
        }
      ],
      "name": "isApprovedForAll",
      "outputs": [
        {
          "internalType": "bool",
          "name": "",
          "type": "bool"
        }
      ],
      "stateMutability": "view",
      "type": "function"
    },
    {
      "inputs": [],
      "name": "mint",
      "outputs": [],
      "stateMutability": "payable",
      "type": "function"
    },
    {
      "inputs": [],
      "name": "name",
      "outputs": [
        {
          "internalType": "string",
          "name": "",
          "type": "string"
        }
      ],
      "stateMutability": "view",
      "type": "function"
    },
    {
      "inputs": [],
      "name": "owner",
      "outputs": [
        {
          "internalType": "address",
          "name": "",
          "type": "address"
        }
      ],
      "stateMutability": "view",
      "type": "function"
    },
    {
      "inputs": [
        {
          "internalType": "uint256",
          "name": "tokenId",
          "type": "uint256"
        }
      ],
      "name": "ownerOf",
      "outputs": [
        {
          "internalType": "address",
          "name": "",
          "type": "address"
        }
      ],
      "stateMutability": "view",
      "type": "function"
    },
    {
      "inputs": [],
      "name": "renounceOwnership",
      "outputs": [],
      "stateMutability": "nonpayable",
      "type": "function"
    },
    {
      "inputs": [
        {
          "internalType": "uint256",
          "name": "_tokenId",
          "type": "uint256"
        },
        {
          "internalType": "uint256",
          "name": "_salePrice",
          "type": "uint256"
        }
      ],
      "name": "royaltyInfo",
      "outputs": [
        {
          "internalType": "address",
          "name": "",
          "type": "address"
        },
        {
          "internalType": "uint256",
          "name": "",
          "type": "uint256"
        }
      ],
      "stateMutability": "view",
      "type": "function"
    },
    {
      "inputs": [
        {
          "internalType": "address",
          "name": "from",
          "type": "address"
        },
        {
          "internalType": "address",
          "name": "to",
          "type": "address"
        },
        {
          "internalType": "uint256",
          "name": "tokenId",
          "type": "uint256"
        }
      ],
      "name": "safeTransferFrom",
      "outputs": [],
      "stateMutability": "nonpayable",
      "type": "function"
    },
    {
      "inputs": [
        {
          "internalType": "address",
          "name": "from",
          "type": "address"
        },
        {
          "internalType": "address",
          "name": "to",
          "type": "address"
        },
        {
          "internalType": "uint256",
          "name": "tokenId",
          "type": "uint256"
        },
        {
          "internalType": "bytes",
          "name": "_data",
          "type": "bytes"
        }
      ],
      "name": "safeTransferFrom",
      "outputs": [],
      "stateMutability": "nonpayable",
      "type": "function"
    },
    {
      "inputs": [
        {
          "internalType": "address",
          "name": "operator",
          "type": "address"
        },
        {
          "internalType": "bool",
          "name": "approved",
          "type": "bool"
        }
      ],
      "name": "setApprovalForAll",
      "outputs": [],
      "stateMutability": "nonpayable",
      "type": "function"
    },
    {
      "inputs": [
        {
          "internalType": "string",
          "name": "baseTokenURI",
          "type": "string"
        }
      ],
      "name": "setBaseURI",
      "outputs": [],
      "stateMutability": "nonpayable",
      "type": "function"
    },
    {
      "inputs": [
        {
          "internalType": "bytes4",
          "name": "interfaceId",
          "type": "bytes4"
        }
      ],
      "name": "supportsInterface",
      "outputs": [
        {
          "internalType": "bool",
          "name": "",
          "type": "bool"
        }
      ],
      "stateMutability": "view",
      "type": "function"
    },
    {
      "inputs": [],
      "name": "symbol",
      "outputs": [
        {
          "internalType": "string",
          "name": "",
          "type": "string"
        }
      ],
      "stateMutability": "view",
      "type": "function"
    },
    {
      "inputs": [
        {
          "internalType": "uint256",
          "name": "index",
          "type": "uint256"
        }
      ],
      "name": "tokenByIndex",
      "outputs": [
        {
          "internalType": "uint256",
          "name": "",
          "type": "uint256"
        }
      ],
      "stateMutability": "view",
      "type": "function"
    },
    {
      "inputs": [
        {
          "internalType": "address",
          "name": "owner",
          "type": "address"
        },
        {
          "internalType": "uint256",
          "name": "index",
          "type": "uint256"
        }
      ],
      "name": "tokenOfOwnerByIndex",
      "outputs": [
        {
          "internalType": "uint256",
          "name": "",
          "type": "uint256"
        }
      ],
      "stateMutability": "view",
      "type": "function"
    },
    {
      "inputs": [
        {
          "internalType": "uint256",
          "name": "tokenId",
          "type": "uint256"
        }
      ],
      "name": "tokenURI",
      "outputs": [
        {
          "internalType": "string",
          "name": "",
          "type": "string"
        }
      ],
      "stateMutability": "view",
      "type": "function"
    },
    {
      "inputs": [],
      "name": "totalSupply",
      "outputs": [
        {
          "internalType": "uint256",
          "name": "",
          "type": "uint256"
        }
      ],
      "stateMutability": "view",
      "type": "function"
    },
    {
      "inputs": [
        {
          "internalType": "address",
          "name": "from",
          "type": "address"
        },
        {
          "internalType": "address",
          "name": "to",
          "type": "address"
        },
        {
          "internalType": "uint256",
          "name": "tokenId",
          "type": "uint256"
        }
      ],
      "name": "transferFrom",
      "outputs": [],
      "stateMutability": "nonpayable",
      "type": "function"
    },
    {
      "inputs": [
        {
          "internalType": "address",
          "name": "newOwner",
          "type": "address"
        }
      ],
      "name": "transferOwnership",
      "outputs": [],
      "stateMutability": "nonpayable",
      "type": "function"
    },
    {
      "inputs": [],
      "name": "withdraw",
      "outputs": [],
      "stateMutability": "nonpayable",
      "type": "function"
    }
  ],
  "bytecode": {
    "object": "0x608060405234801561001057600080fd5b50613580806100206000396000f3fe6080604052600436106101965760003560e01c80634f6ccce7116100e15780638da5cb5b1161008a578063b88d4fde11610064578063b88d4fde14610476578063c87b56dd14610496578063e985e9c5146104b6578063f2fde38b1461050c57600080fd5b80638da5cb5b1461041657806395d89b4114610441578063a22cb4651461045657600080fd5b806370a08231116100bb57806370a08231146103c1578063715018a6146103e15780637ed52cf1146103f657600080fd5b80634f6ccce71461036157806355f804b3146103815780636352211e146103a157600080fd5b806323b872dd116101435780633ccfd60b1161011d5780633ccfd60b1461030c57806342842e0e1461032157806342966c681461034157600080fd5b806323b872dd146102805780632a55205a146102a05780632f745c59146102ec57600080fd5b8063095ea7b311610174578063095ea7b3146102375780631249c58b1461025957806318160ddd1461026157600080fd5b806301ffc9a71461019b57806306fdde03146101d0578063081812fc146101f2575b600080fd5b3480156101a757600080fd5b506101bb6101b6366004612e96565b61052c565b60405190151581526020015b60405180910390f35b3480156101dc57600080fd5b506101e561053d565b6040516101c79190612f29565b3480156101fe57600080fd5b5061021261020d366004612f3c565b6105cf565b60405173ffffffffffffffffffffffffffffffffffffffff90911681526020016101c7565b34801561024357600080fd5b50610257610252366004612f7e565b6106ae565b005b61025761083a565b34801561026d57600080fd5b5060cb545b6040519081526020016101c7565b34801561028c57600080fd5b5061025761029b366004612fa8565b6109cc565b3480156102ac57600080fd5b506102c06102bb366004612fe4565b610a6e565b6040805173ffffffffffffffffffffffffffffffffffffffff90931683526020830191909152016101c7565b3480156102f857600080fd5b50610272610307366004612f7e565b610b65565b34801561031857600080fd5b50610257610c34565b34801561032d57600080fd5b5061025761033c366004612fa8565b610d69565b34801561034d57600080fd5b5061025761035c366004612f3c565b610d84565b34801561036d57600080fd5b5061027261037c366004612f3c565b610e22565b34801561038d57600080fd5b5061025761039c3660046130e9565b610ee0565b3480156103ad57600080fd5b506102126103bc366004612f3c565b610f6a565b3480156103cd57600080fd5b506102726103dc36600461311e565b61101c565b3480156103ed57600080fd5b506102576110ea565b34801561040257600080fd5b50610257610411366004613139565b611175565b34801561042257600080fd5b5060335473ffffffffffffffffffffffffffffffffffffffff16610212565b34801561044d57600080fd5b506101e56112a7565b34801561046257600080fd5b506102576104713660046131ef565b6112b6565b34801561048257600080fd5b5061025761049136600461322b565b6112c5565b3480156104a257600080fd5b506101e56104b1366004612f3c565b61136d565b3480156104c257600080fd5b506101bb6104d13660046132a7565b73ffffffffffffffffffffffffffffffffffffffff9182166000908152609c6020908152604080832093909416825291909152205460ff1690565b34801561051857600080fd5b5061025761052736600461311e565b61147d565b6000610537826115aa565b92915050565b60606097805461054c906132da565b80601f0160208091040260200160405190810160405280929190818152602001828054610578906132da565b80156105c55780601f1061059a576101008083540402835291602001916105c5565b820191906000526020600020905b8154815290600101906020018083116105a857829003601f168201915b5050505050905090565b60008181526099602052604081205473ffffffffffffffffffffffffffffffffffffffff16610685576040517f08c379a000000000000000000000000000000000000000000000000000000000815260206004820152602c60248201527f4552433732313a20617070726f76656420717565727920666f72206e6f6e657860448201527f697374656e7420746f6b656e000000000000000000000000000000000000000060648201526084015b60405180910390fd5b506000908152609b602052604090205473ffffffffffffffffffffffffffffffffffffffff1690565b60006106b982610f6a565b90508073ffffffffffffffffffffffffffffffffffffffff168373ffffffffffffffffffffffffffffffffffffffff1603610776576040517f08c379a000000000000000000000000000000000000000000000000000000000815260206004820152602160248201527f4552433732313a20617070726f76616c20746f2063757272656e74206f776e6560448201527f7200000000000000000000000000000000000000000000000000000000000000606482015260840161067c565b3373ffffffffffffffffffffffffffffffffffffffff8216148061079f575061079f81336104d1565b61082b576040517f08c379a000000000000000000000000000000000000000000000000000000000815260206004820152603860248201527f4552433732313a20617070726f76652063616c6c6572206973206e6f74206f7760448201527f6e6572206e6f7220617070726f76656420666f7220616c6c0000000000000000606482015260840161067c565b6108358383611600565b505050565b610131544210156108cc576040517f08c379a0000000000000000000000000000000000000000000000000000000008152602060048201526024808201527f6d696e74696e67206e6f7420656e61626c6564207965742c20706c656173652060448201527f7761697400000000000000000000000000000000000000000000000000000000606482015260840161067c565b6101305461012d541061093b576040517f08c379a000000000000000000000000000000000000000000000000000000000815260206004820152601660248201527f4d6178696d756d20737570706c79207265616368656400000000000000000000604482015260640161067c565b61012f543410156109a8576040517f08c379a000000000000000000000000000000000000000000000000000000000815260206004820152601160248201527f496e737566696369656e742066756e6473000000000000000000000000000000604482015260640161067c565b6109bb336109b661012d5490565b6116a0565b6109ca61012d80546001019055565b565b6109d7335b8261186e565b610a63576040517f08c379a000000000000000000000000000000000000000000000000000000000815260206004820152603160248201527f4552433732313a207472616e736665722063616c6c6572206973206e6f74206f60448201527f776e6572206e6f7220617070726f766564000000000000000000000000000000606482015260840161067c565b6108358383836119de565b600082815260fc6020908152604080832081518083019092525473ffffffffffffffffffffffffffffffffffffffff8116808352740100000000000000000000000000000000000000009091046bffffffffffffffffffffffff16928201929092528291610b2957506040805180820190915260fb5473ffffffffffffffffffffffffffffffffffffffff811682527401000000000000000000000000000000000000000090046bffffffffffffffffffffffff1660208201525b602081015160009061271090610b4d906bffffffffffffffffffffffff168761335c565b610b5791906133c8565b915196919550909350505050565b6000610b708361101c565b8210610bfe576040517f08c379a000000000000000000000000000000000000000000000000000000000815260206004820152602b60248201527f455243373231456e756d657261626c653a206f776e657220696e646578206f7560448201527f74206f6620626f756e6473000000000000000000000000000000000000000000606482015260840161067c565b5073ffffffffffffffffffffffffffffffffffffffff91909116600090815260c960209081526040808320938352929052205490565b60335473ffffffffffffffffffffffffffffffffffffffff163314610cb5576040517f08c379a000000000000000000000000000000000000000000000000000000000815260206004820181905260248201527f4f776e61626c653a2063616c6c6572206973206e6f7420746865206f776e6572604482015260640161067c565b60004711610d1f576040517f08c379a000000000000000000000000000000000000000000000000000000000815260206004820152601460248201527f4e6f2066756e647320746f207769746864726177000000000000000000000000604482015260640161067c565b6101325460405173ffffffffffffffffffffffffffffffffffffffff909116904780156108fc02916000818181858888f19350505050158015610d66573d6000803e3d6000fd5b50565b610835838383604051806020016040528060008152506112c5565b610d8d336109d1565b610e19576040517f08c379a000000000000000000000000000000000000000000000000000000000815260206004820152603360248201527f4552433732315570677261646561626c653a2063616c6c6572206973206e6f7460448201527f206f776e6572206e6f7220617070726f76656400000000000000000000000000606482015260840161067c565b610d6681611c50565b6000610e2d60cb5490565b8210610ebb576040517f08c379a000000000000000000000000000000000000000000000000000000000815260206004820152602c60248201527f455243373231456e756d657261626c653a20676c6f62616c20696e646578206f60448201527f7574206f6620626f756e64730000000000000000000000000000000000000000606482015260840161067c565b60cb8281548110610ece57610ece6133dc565b90600052602060002001549050919050565b60335473ffffffffffffffffffffffffffffffffffffffff163314610f61576040517f08c379a000000000000000000000000000000000000000000000000000000000815260206004820181905260248201527f4f776e61626c653a2063616c6c6572206973206e6f7420746865206f776e6572604482015260640161067c565b610d6681611d29565b60008181526099602052604081205473ffffffffffffffffffffffffffffffffffffffff1680610537576040517f08c379a000000000000000000000000000000000000000000000000000000000815260206004820152602960248201527f4552433732313a206f776e657220717565727920666f72206e6f6e657869737460448201527f656e7420746f6b656e0000000000000000000000000000000000000000000000606482015260840161067c565b600073ffffffffffffffffffffffffffffffffffffffff82166110c1576040517f08c379a000000000000000000000000000000000000000000000000000000000815260206004820152602a60248201527f4552433732313a2062616c616e636520717565727920666f7220746865207a6560448201527f726f206164647265737300000000000000000000000000000000000000000000606482015260840161067c565b5073ffffffffffffffffffffffffffffffffffffffff166000908152609a602052604090205490565b60335473ffffffffffffffffffffffffffffffffffffffff16331461116b576040517f08c379a000000000000000000000000000000000000000000000000000000000815260206004820181905260248201527f4f776e61626c653a2063616c6c6572206973206e6f7420746865206f776e6572604482015260640161067c565b6109ca6000611d3d565b600054610100900460ff166111905760005460ff1615611194565b303b155b611220576040517f08c379a000000000000000000000000000000000000000000000000000000000815260206004820152602e60248201527f496e697469616c697a61626c653a20636f6e747261637420697320616c72656160448201527f647920696e697469616c697a6564000000000000000000000000000000000000606482015260840161067c565b600054610100900460ff1615801561125f57600080547fffffffffffffffffffffffffffffffffffffffffffffffffffffffffffff0000166101011790555b61126e88888888888888611db4565b801561129d57600080547fffffffffffffffffffffffffffffffffffffffffffffffffffffffffffff00ff1690555b5050505050505050565b60606098805461054c906132da565b6112c1338383611edf565b5050565b6112cf338361186e565b61135b576040517f08c379a000000000000000000000000000000000000000000000000000000000815260206004820152603160248201527f4552433732313a207472616e736665722063616c6c6572206973206e6f74206f60448201527f776e6572206e6f7220617070726f766564000000000000000000000000000000606482015260840161067c565b6113678484848461200c565b50505050565b60008181526099602052604090205460609073ffffffffffffffffffffffffffffffffffffffff16611421576040517f08c379a000000000000000000000000000000000000000000000000000000000815260206004820152602f60248201527f4552433732314d657461646174613a2055524920717565727920666f72206e6f60448201527f6e6578697374656e7420746f6b656e0000000000000000000000000000000000606482015260840161067c565b600061142b6120af565b9050600081511161144b5760405180602001604052806000815250611476565b80611455846120bf565b60405160200161146692919061340b565b6040516020818303038152906040525b9392505050565b60335473ffffffffffffffffffffffffffffffffffffffff1633146114fe576040517f08c379a000000000000000000000000000000000000000000000000000000000815260206004820181905260248201527f4f776e61626c653a2063616c6c6572206973206e6f7420746865206f776e6572604482015260640161067c565b73ffffffffffffffffffffffffffffffffffffffff81166115a1576040517f08c379a000000000000000000000000000000000000000000000000000000000815260206004820152602660248201527f4f776e61626c653a206e6577206f776e657220697320746865207a65726f206160448201527f6464726573730000000000000000000000000000000000000000000000000000606482015260840161067c565b610d6681611d3d565b60007fffffffff0000000000000000000000000000000000000000000000000000000082167f2a55205a0000000000000000000000000000000000000000000000000000000014806105375750610537826121f4565b6000818152609b6020526040902080547fffffffffffffffffffffffff00000000000000000000000000000000000000001673ffffffffffffffffffffffffffffffffffffffff8416908117909155819061165a82610f6a565b73ffffffffffffffffffffffffffffffffffffffff167f8c5be1e5ebec7d5bd14f71427d1e84f3dd0314c0f7b2291e5b200ac8c7c3b92560405160405180910390a45050565b73ffffffffffffffffffffffffffffffffffffffff821661171d576040517f08c379a000000000000000000000000000000000000000000000000000000000815260206004820181905260248201527f4552433732313a206d696e7420746f20746865207a65726f2061646472657373604482015260640161067c565b60008181526099602052604090205473ffffffffffffffffffffffffffffffffffffffff16156117a9576040517f08c379a000000000000000000000000000000000000000000000000000000000815260206004820152601c60248201527f4552433732313a20746f6b656e20616c7265616479206d696e74656400000000604482015260640161067c565b6117b56000838361224a565b73ffffffffffffffffffffffffffffffffffffffff82166000908152609a602052604081208054600192906117eb90849061343a565b909155505060008181526099602052604080822080547fffffffffffffffffffffffff00000000000000000000000000000000000000001673ffffffffffffffffffffffffffffffffffffffff861690811790915590518392907fddf252ad1be2c89b69c2b068fc378daa952ba7f163c4a11628f55a4df523b3ef908290a45050565b60008181526099602052604081205473ffffffffffffffffffffffffffffffffffffffff1661191f576040517f08c379a000000000000000000000000000000000000000000000000000000000815260206004820152602c60248201527f4552433732313a206f70657261746f7220717565727920666f72206e6f6e657860448201527f697374656e7420746f6b656e0000000000000000000000000000000000000000606482015260840161067c565b600061192a83610f6a565b90508073ffffffffffffffffffffffffffffffffffffffff168473ffffffffffffffffffffffffffffffffffffffff161480611998575073ffffffffffffffffffffffffffffffffffffffff8082166000908152609c602090815260408083209388168352929052205460ff165b806119d657508373ffffffffffffffffffffffffffffffffffffffff166119be846105cf565b73ffffffffffffffffffffffffffffffffffffffff16145b949350505050565b8273ffffffffffffffffffffffffffffffffffffffff166119fe82610f6a565b73ffffffffffffffffffffffffffffffffffffffff1614611aa1576040517f08c379a000000000000000000000000000000000000000000000000000000000815260206004820152602560248201527f4552433732313a207472616e736665722066726f6d20696e636f72726563742060448201527f6f776e6572000000000000000000000000000000000000000000000000000000606482015260840161067c565b73ffffffffffffffffffffffffffffffffffffffff8216611b43576040517f08c379a0000000000000000000000000000000000000000000000000000000008152602060048201526024808201527f4552433732313a207472616e7366657220746f20746865207a65726f2061646460448201527f7265737300000000000000000000000000000000000000000000000000000000606482015260840161067c565b611b4e83838361224a565b611b59600082611600565b73ffffffffffffffffffffffffffffffffffffffff83166000908152609a60205260408120805460019290611b8f908490613452565b909155505073ffffffffffffffffffffffffffffffffffffffff82166000908152609a60205260408120805460019290611bca90849061343a565b909155505060008181526099602052604080822080547fffffffffffffffffffffffff00000000000000000000000000000000000000001673ffffffffffffffffffffffffffffffffffffffff86811691821790925591518493918716917fddf252ad1be2c89b69c2b068fc378daa952ba7f163c4a11628f55a4df523b3ef91a4505050565b6000611c5b82610f6a565b9050611c698160008461224a565b611c74600083611600565b73ffffffffffffffffffffffffffffffffffffffff81166000908152609a60205260408120805460019290611caa908490613452565b909155505060008281526099602052604080822080547fffffffffffffffffffffffff00000000000000000000000000000000000000001690555183919073ffffffffffffffffffffffffffffffffffffffff8416907fddf252ad1be2c89b69c2b068fc378daa952ba7f163c4a11628f55a4df523b3ef908390a45050565b80516112c19061012e906020840190612dcf565b6033805473ffffffffffffffffffffffffffffffffffffffff8381167fffffffffffffffffffffffff0000000000000000000000000000000000000000831681179093556040519116919082907f8be0079c531659141344cd1fd0a4f28419497f9722a3daafe3b4186f6b6457e090600090a35050565b600054610100900460ff16611dcf5760005460ff1615611dd3565b303b155b611e5f576040517f08c379a000000000000000000000000000000000000000000000000000000000815260206004820152602e60248201527f496e697469616c697a61626c653a20636f6e747261637420697320616c72656160448201527f647920696e697469616c697a6564000000000000000000000000000000000000606482015260840161067c565b600054610100900460ff16158015611e9e57600080547fffffffffffffffffffffffffffffffffffffffffffffffffffffffffffff0000166101011790555b611ea6612255565b611eae612255565b611eb66122ec565b611ec0888861238c565b611ec8612255565b611ed061244a565b61126e88888888888888612565565b8173ffffffffffffffffffffffffffffffffffffffff168373ffffffffffffffffffffffffffffffffffffffff1603611f74576040517f08c379a000000000000000000000000000000000000000000000000000000000815260206004820152601960248201527f4552433732313a20617070726f766520746f2063616c6c657200000000000000604482015260640161067c565b73ffffffffffffffffffffffffffffffffffffffff8381166000818152609c602090815260408083209487168084529482529182902080547fffffffffffffffffffffffffffffffffffffffffffffffffffffffffffffff001686151590811790915591519182527f17307eab39ab6107e8899845ad3d59bd9653f200f220920489ca2b5937696c31910160405180910390a3505050565b6120178484846119de565b612023848484846126c3565b611367576040517f08c379a000000000000000000000000000000000000000000000000000000000815260206004820152603260248201527f4552433732313a207472616e7366657220746f206e6f6e20455243373231526560448201527f63656976657220696d706c656d656e7465720000000000000000000000000000606482015260840161067c565b606061012e805461054c906132da565b60608160000361210257505060408051808201909152600181527f3000000000000000000000000000000000000000000000000000000000000000602082015290565b8160005b811561212c578061211681613469565b91506121259050600a836133c8565b9150612106565b60008167ffffffffffffffff81111561214757612147613006565b6040519080825280601f01601f191660200182016040528015612171576020820181803683370190505b5090505b84156119d657612186600183613452565b9150612193600a866134a1565b61219e90603061343a565b60f81b8183815181106121b3576121b36133dc565b60200101907effffffffffffffffffffffffffffffffffffffffffffffffffffffffffffff1916908160001a9053506121ed600a866133c8565b9450612175565b60007fffffffff0000000000000000000000000000000000000000000000000000000082167f780e9d630000000000000000000000000000000000000000000000000000000014806105375750610537826128b6565b610835838383612999565b600054610100900460ff166109ca576040517f08c379a000000000000000000000000000000000000000000000000000000000815260206004820152602b60248201527f496e697469616c697a61626c653a20636f6e7472616374206973206e6f74206960448201527f6e697469616c697a696e67000000000000000000000000000000000000000000606482015260840161067c565b600054610100900460ff16612383576040517f08c379a000000000000000000000000000000000000000000000000000000000815260206004820152602b60248201527f496e697469616c697a61626c653a20636f6e7472616374206973206e6f74206960448201527f6e697469616c697a696e67000000000000000000000000000000000000000000606482015260840161067c565b6109ca33611d3d565b600054610100900460ff16612423576040517f08c379a000000000000000000000000000000000000000000000000000000000815260206004820152602b60248201527f496e697469616c697a61626c653a20636f6e7472616374206973206e6f74206960448201527f6e697469616c697a696e67000000000000000000000000000000000000000000606482015260840161067c565b8151612436906097906020850190612dcf565b508051610835906098906020840190612dcf565b600054610100900460ff166124655760005460ff1615612469565b303b155b6124f5576040517f08c379a000000000000000000000000000000000000000000000000000000000815260206004820152602e60248201527f496e697469616c697a61626c653a20636f6e747261637420697320616c72656160448201527f647920696e697469616c697a6564000000000000000000000000000000000000606482015260840161067c565b600054610100900460ff1615801561253457600080547fffffffffffffffffffffffffffffffffffffffffffffffffffffffffffff0000166101011790555b8015610d6657600080547fffffffffffffffffffffffffffffffffffffffffffffffffffffffffffff00ff16905550565b600054610100900460ff166125805760005460ff1615612584565b303b155b612610576040517f08c379a000000000000000000000000000000000000000000000000000000000815260206004820152602e60248201527f496e697469616c697a61626c653a20636f6e747261637420697320616c72656160448201527f647920696e697469616c697a6564000000000000000000000000000000000000606482015260840161067c565b600054610100900460ff1615801561264f57600080547fffffffffffffffffffffffffffffffffffffffffffffffffffffffffffff0000166101011790555b85516126639061012e906020890190612dcf565b5061012f85905561013084905561013183905561013280547fffffffffffffffffffffffff00000000000000000000000000000000000000001673ffffffffffffffffffffffffffffffffffffffff841617905561126e826103e8612a9f565b600073ffffffffffffffffffffffffffffffffffffffff84163b156128ab576040517f150b7a0200000000000000000000000000000000000000000000000000000000815273ffffffffffffffffffffffffffffffffffffffff85169063150b7a029061273a9033908990889088906004016134b5565b6020604051808303816000875af1925050508015612793575060408051601f3d9081017fffffffffffffffffffffffffffffffffffffffffffffffffffffffffffffffe0168201909252612790918101906134fe565b60015b612860573d8080156127c1576040519150601f19603f3d011682016040523d82523d6000602084013e6127c6565b606091505b508051600003612858576040517f08c379a000000000000000000000000000000000000000000000000000000000815260206004820152603260248201527f4552433732313a207472616e7366657220746f206e6f6e20455243373231526560448201527f63656976657220696d706c656d656e7465720000000000000000000000000000606482015260840161067c565b805181602001fd5b7fffffffff00000000000000000000000000000000000000000000000000000000167f150b7a02000000000000000000000000000000000000000000000000000000001490506119d6565b506001949350505050565b60007fffffffff0000000000000000000000000000000000000000000000000000000082167f80ac58cd00000000000000000000000000000000000000000000000000000000148061294957507fffffffff0000000000000000000000000000000000000000000000000000000082167f5b5e139f00000000000000000000000000000000000000000000000000000000145b8061053757507f01ffc9a7000000000000000000000000000000000000000000000000000000007fffffffff00000000000000000000000000000000000000000000000000000000831614610537565b73ffffffffffffffffffffffffffffffffffffffff8316612a01576129fc8160cb8054600083815260cc60205260408120829055600182018355919091527fa7ce836d032b2bf62b7e2097a8e0a6d8aeb35405ad15271e96d3b0188a1d06fb0155565b612a3e565b8173ffffffffffffffffffffffffffffffffffffffff168373ffffffffffffffffffffffffffffffffffffffff1614612a3e57612a3e8382612c18565b73ffffffffffffffffffffffffffffffffffffffff8216612a625761083581612ccf565b8273ffffffffffffffffffffffffffffffffffffffff168273ffffffffffffffffffffffffffffffffffffffff1614610835576108358282612d7e565b6127106bffffffffffffffffffffffff82161115612b3f576040517f08c379a000000000000000000000000000000000000000000000000000000000815260206004820152602a60248201527f455243323938313a20726f79616c7479206665652077696c6c2065786365656460448201527f2073616c65507269636500000000000000000000000000000000000000000000606482015260840161067c565b73ffffffffffffffffffffffffffffffffffffffff8216612bbc576040517f08c379a000000000000000000000000000000000000000000000000000000000815260206004820152601960248201527f455243323938313a20696e76616c696420726563656976657200000000000000604482015260640161067c565b6040805180820190915273ffffffffffffffffffffffffffffffffffffffff9092168083526bffffffffffffffffffffffff9091166020909201829052740100000000000000000000000000000000000000009091021760fb55565b60006001612c258461101c565b612c2f9190613452565b600083815260ca6020526040902054909150808214612c8f5773ffffffffffffffffffffffffffffffffffffffff8416600090815260c960209081526040808320858452825280832054848452818420819055835260ca90915290208190555b50600091825260ca6020908152604080842084905573ffffffffffffffffffffffffffffffffffffffff909416835260c981528383209183525290812055565b60cb54600090612ce190600190613452565b600083815260cc602052604081205460cb8054939450909284908110612d0957612d096133dc565b906000526020600020015490508060cb8381548110612d2a57612d2a6133dc565b600091825260208083209091019290925582815260cc909152604080822084905585825281205560cb805480612d6257612d6261351b565b6001900381819060005260206000200160009055905550505050565b6000612d898361101c565b73ffffffffffffffffffffffffffffffffffffffff909316600090815260c960209081526040808320868452825280832085905593825260ca9052919091209190915550565b828054612ddb906132da565b90600052602060002090601f016020900481019282612dfd5760008555612e43565b82601f10612e1657805160ff1916838001178555612e43565b82800160010185558215612e43579182015b82811115612e43578251825591602001919060010190612e28565b50612e4f929150612e53565b5090565b5b80821115612e4f5760008155600101612e54565b7fffffffff0000000000000000000000000000000000000000000000000000000081168114610d6657600080fd5b600060208284031215612ea857600080fd5b813561147681612e68565b60005b83811015612ece578181015183820152602001612eb6565b838111156113675750506000910152565b60008151808452612ef7816020860160208601612eb3565b601f017fffffffffffffffffffffffffffffffffffffffffffffffffffffffffffffffe0169290920160200192915050565b6020815260006114766020830184612edf565b600060208284031215612f4e57600080fd5b5035919050565b803573ffffffffffffffffffffffffffffffffffffffff81168114612f7957600080fd5b919050565b60008060408385031215612f9157600080fd5b612f9a83612f55565b946020939093013593505050565b600080600060608486031215612fbd57600080fd5b612fc684612f55565b9250612fd460208501612f55565b9150604084013590509250925092565b60008060408385031215612ff757600080fd5b50508035926020909101359150565b7f4e487b7100000000000000000000000000000000000000000000000000000000600052604160045260246000fd5b600067ffffffffffffffff8084111561305057613050613006565b604051601f85017fffffffffffffffffffffffffffffffffffffffffffffffffffffffffffffffe0908116603f0116810190828211818310171561309657613096613006565b816040528093508581528686860111156130af57600080fd5b858560208301376000602087830101525050509392505050565b600082601f8301126130da57600080fd5b61147683833560208501613035565b6000602082840312156130fb57600080fd5b813567ffffffffffffffff81111561311257600080fd5b6119d6848285016130c9565b60006020828403121561313057600080fd5b61147682612f55565b600080600080600080600060e0888a03121561315457600080fd5b873567ffffffffffffffff8082111561316c57600080fd5b6131788b838c016130c9565b985060208a013591508082111561318e57600080fd5b61319a8b838c016130c9565b975060408a01359150808211156131b057600080fd5b506131bd8a828b016130c9565b955050606088013593506080880135925060a088013591506131e160c08901612f55565b905092959891949750929550565b6000806040838503121561320257600080fd5b61320b83612f55565b91506020830135801515811461322057600080fd5b809150509250929050565b6000806000806080858703121561324157600080fd5b61324a85612f55565b935061325860208601612f55565b925060408501359150606085013567ffffffffffffffff81111561327b57600080fd5b8501601f8101871361328c57600080fd5b61329b87823560208401613035565b91505092959194509250565b600080604083850312156132ba57600080fd5b6132c383612f55565b91506132d160208401612f55565b90509250929050565b600181811c908216806132ee57607f821691505b602082108103613327577f4e487b7100000000000000000000000000000000000000000000000000000000600052602260045260246000fd5b50919050565b7f4e487b7100000000000000000000000000000000000000000000000000000000600052601160045260246000fd5b6000817fffffffffffffffffffffffffffffffffffffffffffffffffffffffffffffffff04831182151516156133945761339461332d565b500290565b7f4e487b7100000000000000000000000000000000000000000000000000000000600052601260045260246000fd5b6000826133d7576133d7613399565b500490565b7f4e487b7100000000000000000000000000000000000000000000000000000000600052603260045260246000fd5b6000835161341d818460208801612eb3565b835190830190613431818360208801612eb3565b01949350505050565b6000821982111561344d5761344d61332d565b500190565b6000828210156134645761346461332d565b500390565b60007fffffffffffffffffffffffffffffffffffffffffffffffffffffffffffffffff820361349a5761349a61332d565b5060010190565b6000826134b0576134b0613399565b500690565b600073ffffffffffffffffffffffffffffffffffffffff8087168352808616602084015250836040830152608060608301526134f46080830184612edf565b9695505050505050565b60006020828403121561351057600080fd5b815161147681612e68565b7f4e487b7100000000000000000000000000000000000000000000000000000000600052603160045260246000fdfea26469706673582212202d1ece86a2c9677b727e5db171b78b002d3a4c0998c1c730590346eb5ef67cad64736f6c634300080d0033",
    "linkReferences": {}
  }
}